:020000040800F2
:10000000980D002005010008990A0008A1070008C2
:10001000950A00084D01000849140008000000007E
:100020000000000000000000000000006D0E00084D
:100030005101000800000000D50C0008590F00080D
:100040001F0100081F0100081F0100081F01000810
:100050001F0100081F0100081F0100081F01000800
:100060001F0100081F0100081F0100081F010008F0
:100070001F0100081F0100081F0100081F010008E0
:100080001F0100081F0100081F0100081F010008D0
:100090001F0100081F0100081F0100081F010008C0
:1000A0001F0100081F0100081F0100081F010008B0
:1000B0001F0100081F0100081F0100081F010008A0
:1000C0001F0100081F0100081F0100081F01000890
:1000D0001F0100082D1300081F0100081F01000860
:1000E0001F0100081F0100081F010008DFF810D0E1
:1000F00000F01AF800480047E9240008AFF3008038
:10010000980D00200648804706480047FEE7FEE7B6
:10011000FEE7FEE7FEE7FEE7FEE7FEE7FEE7FEE7B7
:100120005D0F0008ED000008064C074D06E0E06892
:1001300040F0010394E8070098471034AC42F6D32E
:10014000FFF7D8FFE04200080043000800BFFEE7C9
:100150007047000030B5044604254FF4302000F00D
:100160006FF80546042D17D10C48006940F00200D5
:100170000A49086108464461006940F0400008618E
:100180004FF4302000F05CF805460448006941F661
:10019000FD71084001490861284630BD0020024039
:1001A00004200B49C96801F0010109B101200EE0EA
:1001B0000749C96801F0040109B1022007E00449B8
:1001C000C96801F0100109B1032000E00420704764
:1001D000002002400348006940F0800001490861A6
:1001E000704700000020024070B504460D4604260A
:1001F000F00200F025F80646042E11D109480069E6
:1002000040F00100074908612580F00200F018F86D
:1002100006460448006941F6FE710840014908613C
:10022000304670BD00200240024803494860034840
:10023000486070472301674500200240AB89EFCD3D
:1002400000B502460423FFF7ABFF034603E0FFF7C8
:10025000A7FF0346521E012B01D1002AF7D102B994
:100260000523184600BD0000014611B904488088E6
:100270007047032902D10248C088F9E70020F7E758
:10028000100000200848094A0168914204D1084939
:10029000D0E900230CC105E00449054A11600021A2
:1002A0009180D1807047000000FC00083412CDAB73
:1002B0001000002070B505460C463DB909488088FD
:1002C000A04203DA0748848001F090FF032D07D194
:1002D0000448C088A04203DA0248C48001F086FFC7
:1002E00070BD0000100000202DE9F04102460025FD
:1002F0000026002000230024002791F803C00CF002
:100300000F0591F803C00CF0100CBCF1000F03D0E6
:1003100091F802C04CEA050591F800C0BCF1000F4D
:1003200031D0146800202BE04FF0010C0CFA00F3E0
:10033000B1F800C00CEA03069E4220D183004FF0C2
:100340000F0C0CFA03F7BC4305FA03FC4CEA040457
:1003500091F803C0BCF1280F06D14FF0010C0CFA44
:1003600000FCC2F814C00AE091F803C0BCF1480FC9
:1003700005D14FF0010C0CFA00FCC2F810C0401C73
:100380000828D1D31460B1F800C0BCF1FF0F34DDF0
:10039000546800202EE000F1080C4FF0010808FA24
:1003A0000CF3B1F800C00CEA03069E4221D1830091
:1003B0004FF00F0C0CFA03F7BC4305FA03FC4CEAB0
:1003C000040491F803C0BCF1280F05D100F1080C1A
:1003D00008FA0CF8C2F8148091F803C0BCF1480F79
:1003E00007D100F1080C4FF0010808FA0CF8C2F828
:1003F0001080401C0828CED35460BDE8F08102462E
:10040000002093680B400BB1012000E000207047F2
:100410000AB1016100E04161704710B5002001F0B0
:1004200099FE0321002002F0C1FC10BD10B5002090
:1004300001F090FE0321002002F0B8FC10BD000086
:1004400070B500F0C5F904465549097884EA010001
:1004500000EA04055248047052480078002804DD80
:1004600050480078401E4F4908704F4800780028D7
:100470006BD105F0020008B34A480078F0B94B4947
:100480000978C81CC11700EB91718910A0EB81019C
:10049000464A117011460978C81CC11700EB9171CA
:1004A0008910A0EB8101424A1170104601783F4843
:1004B000007802F07BFC08203A49087005F004003F
:1004C00008B338480078F0B938490978481CC11792
:1004D00000EB91718910A0EB8101344A1170114633
:1004E0000978C81CC11700EB91718910A0EB81013C
:1004F0002F4A1170104601782C48007802F056FC03
:1005000008202849087005F00800002846D001207E
:100510002549087025480078264908700846007863
:1005200030B1012807D0022808D003280CD108E0F8
:1005300000F0D2FB08E000F0A9F905E000F03CF87B
:1005400002E000F03BFD00BF28E0002619480078DB
:1005500030B1012808D002280AD0032810D10BE0BE
:1005600000F0DAFB06460BE000F0B0F9064607E0C3
:1005700000F02CF8064603E000F040FD064600BF00
:1005800000BF56B100200849087001F0E3FD08489B
:1005900001780648007802F009FC00BF002070BD19
:1005A0001C0000201D0000201A0000201800002060
:1005B000190000201B00002010B5002001F0CAFD2A
:1005C00002F03AFF02F002F8002010BD70B500F012
:1005D000FFF805466849097885EA010000EA050444
:1005E0006548057005F00100B8B105F00400A0B140
:1005F00062480078A0B962480078401C60490870E1
:10060000084600781E280BDB01205C49087000209A
:100610005C4908705A49087002E000205849087087
:100620005648007820B1012877D0022873D190E095
:1006300004F0010040B154480078002804DD52481D
:100640000078401E5049087004F0020040B14E4846
:100650000078072804DA4C480078401C4A490870A2
:1006600004F0040040B149480078002804DD474800
:100670000078401E4549087005F0080080B34448E2
:100680000078401C42490870084600780A2840D18A
:1006900040483D49097800EBC1003C490978405C7D
:1006A00010BB3D4800783B49374A127801EBC20144
:1006B000364A12788854354801783348007800F07B
:1006C000D5FE38B102202D490870334800783349EF
:1006D00008701EE030480078012802D1022001E0B5
:1006E00003E001202C49087013E029480078002815
:1006F0000CDD274800780A2808DA24480078072803
:1007000004DA22480078401C204908700020204963
:10071000087001F05BFF2BE0FFE71A48007820B972
:1007200001F054FF01201749087001F019FB01F096
:10073000A5FC04F0080030B10020104908701149F0
:1007400008701349087004F0010008B1012070BD61
:100750000EE004F0080028B102F06EFE01F036FF52
:100760000020F4E704F0010008B10120EFE700BF2A
:1007700000BF0020EBE70000460000204000002002
:1007800044000020450000203E0000203D000020E5
:10079000420000208C0800203F0000204100002083
:1007A00000BFFEE708B50121082000F04FFB4820FC
:1007B0008DF803004FF47040ADF8000003208DF871
:1007C000020069460148FFF78FFD08BD000C01409B
:1007D00070B500254FF480512948FFF710FE08B985
:1007E00045F001054FF400512548FFF708FE08B910
:1007F00045F002054FF480412148FFF700FE08B99B
:1008000045F004054FF400411D48FFF7F8FD08B915
:1008100045F0080500242DE00120A0402840A0B1AB
:100820001848005D052823DA1648005D401C15496C
:1008300008550846005D05281ADB0120A040124932
:10084000097808431049087012E00E48005D00283E
:100850000EDD0C48005D401E0A4908550846005D43
:1008600030B90120A0400849097881430648017049
:10087000601CC4B2042CCFDB0348007870BD0000BC
:10088000000C0140040000200300002010B50020EF
:1008900001F060FC01F0C8FC00200749087007491E
:1008A000087007490870074908700749087002F086
:1008B00009FB002010BD00003000002031000020A6
:1008C00032000020380000203900002070B5FFF70A
:1008D0007FFF05466849097885EA010000EA0504BA
:1008E0006548057005F00100D8B105F00400C0B1FD
:1008F00062480078022817D061480078401C60499F
:100900000870084600781E280EDB5C48007858B94D
:1009100001205A49087000205A4908705849087047
:1009200002E00020564908705448007820B10128A0
:1009300077D0022873D18EE004F00100A8B15248AC
:100940000078002811DD5048007800EB80004F4906
:1009500001EB80004E490978405C00F0010020B9AD
:1009600049480078401E4849087004F00200A8B1C8
:1009700045480078082811DA4348007800EB8000E9
:10098000424901EB800042490978405C00F00400D4
:1009900020B93D480078401C3B49087004F0040031
:1009A000A8B13B480078002811DD3748007800EBFB
:1009B0008000364901EB800035490978405C00F041
:1009C000080020B932480078401E3149087004F010
:1009D0000800A8B12E480078132811DA2A480078B8
:1009E00000EB8000294901EB800029490978405C2F
:1009F00000F0020020B926480078401C2449087005
:100A000002F060FA22480078132808D11E480078C6
:100A1000082804D102201949087002F067FC27E079
:100A2000FFE71848007820B902F04CFA0120154978
:100A3000087001F095F901F021FB04F0080020B1E5
:100A400000200E4908700F49087004F0010008B139
:100A5000012070BD0CE004F0080018B1FFF716FF8C
:100A60000020F6E704F0010008B10120F1E700BF23
:100A700000BF0020EDE700003C0000203200002015
:100A8000380000203900002031000020D805002067
:100A90003000002000BFFEE7704770B500240EE074
:100AA0000021204600F0E5F8002504E0002000F0D9
:100AB00001F9681CC5B2802DF8DB601CC4B2082C9B
:100AC000EEDB70BD08B50121082000F0BFF914204D
:100AD0008DF8030003208DF802004FF48070ADF80C
:100AE000000069460A48FFF7FFFB4FF40070ADF8BD
:100AF000000069460648FFF7F7FB0122510204484F
:100B0000FFF786FC012211020148FFF781FC08BDB6
:100B1000000C014070B50546002415E080202041FE
:100B200000EA05024FF480710E48FFF771FC0122C4
:100B300051020C48FFF76CFC00224FF40071094889
:100B4000FFF766FC601CC4B2082CE7DB01225102EF
:100B50000448FFF75DFC00224FF400710148FFF7E5
:100B600057FC70BD000C014010B5012211020A486B
:100B7000FFF74EFC012251020748FFF749FC002213
:100B80004FF480710448FFF743FC00224FF40071DA
:100B90000148FFF73DFC10BD000C014010B50022DC
:100BA0004FF480710648FFF733FC012251020448DC
:100BB000FFF72EFC012211020148FFF729FC10BDAE
:100BC000000C014070B5002406E0002500E06D1C1B
:100BD000B5F57A7FFBD3641CB4F57A7FF5D3FFF7C4
:100BE00071FFAE2000F056F8D52000F053F88020B9
:100BF00000F050F8A82000F04DF83F2000F04AF82F
:100C0000D32000F047F8002000F044F8402000F026
:100C100041F8A12000F03EF8C82000F03BF8DA20AF
:100C200000F038F8122000F035F8812000F032F89A
:100C3000CF2000F02FF8D92000F02CF8F12000F0A0
:100C400029F8DB2000F026F8302000F023F8A4205B
:100C500000F020F8A62000F01DF88D2000F01AF812
:100C6000142000F017F8AF2000F014F8FFF715FF7C
:100C700070BD70B505460C4645F0B00000F00AF8AE
:100C8000102141EA141000F005F804F00F0000F004
:100C900001F870BD10B50446FFF766FF7820FFF736
:100CA00039FF0020FFF736FF2046FFF733FFFFF73D
:100CB00075FF10BD10B50446FFF756FF7820FFF70B
:100CC00029FF4020FFF726FF2046FFF723FFFFF70D
:100CD00065FF10BD7047000010B5012001F03AFA21
:100CE00000200849087008490880FFF7BDFA074945
:100CF00008800020064908700649087002F008FACA
:100D0000002010BD2000002024000020260000202C
:100D10002C0000202D00002010B5FFF759FD0446DF
:100D20004548007830B1012812D0022822D003288B
:100D30007ED15BE004F0080020B102F019FB012035
:100D40003D49087004F0010008B1012010BD6FE0BA
:100D500002F07CFC38480078012804D101F000FE44
:100D600001F08CF905E034480078032801D101F046
:100D7000A9FE5DE03148007820B901F0F1FD0120C5
:100D80002E49087000F0ECFF01F078F904F008003B
:100D900088B12B480078401C294908700846007823
:100DA0000F280BDB0120244908700020234908701C
:100DB0002349087002E000202149087004F0010076
:100DC00098B103201C4908701E4800881E490988F4
:100DD000884208DD1B4800881B49088019480188A3
:100DE0000020FFF767FA01F06DFE21E004F0080033
:100DF00020B102F0BDFA01200F49087004F0010093
:100E0000A8B11048008810490988884208DD0D48BB
:100E100000880D4908800B4801880020FFF74AFA36
:100E200000200549087002F073F901208EE700BF29
:100E300000BF00208AE70000200000202C000020D6
:100E40002D000020240000202600002029B1064AA1
:100E500092690243044B9A6104E0034A9269824317
:100E6000014B9A617047000000100240704710B5B6
:100E700000F002F810BD00000CB5002001900090B9
:100E80003348006840F480303149086000BF304882
:100E9000006800F4003000900198401C0190009818
:100EA00018B90198B0F5A06FF1D12948006800F495
:100EB000003010B10120009001E000200090009867
:100EC000012843D12348006840F010002149086000
:100ED0000846006820F0030008600846006840F0FB
:100EE000020008601A48406819494860084640688E
:100EF00048600846406840F48060486008464068A2
:100F000020F47C1048600846406840F4E8104860CF
:100F10000846006840F08070086000BF0C48006818
:100F200000F000700028F9D00948406820F0030064
:100F3000074948600846406840F00200486000BF2A
:100F40000348406800F00C000828F9D10CBD0000EF
:100F500000100240002002407047000010B5134806
:100F6000006840F0010011490860084640681049D7
:100F700008400E494860084600680E4908400B4981
:100F800008600846006820F4802008600846406831
:100F900020F4FE0048604FF41F008860FFF767FFF1
:100FA0004FF000600449086010BD000000100240CE
:100FB0000000FFF8FFFFF6FE08ED00E010B501208D
:100FC00001F0C8F80020084908700849088008495D
:100FD00008700848006843F239010844064908606F
:100FE00002F0EAF8002010BD480000204E0000206A
:100FF0005B0000206C000020540000202DE9F0412F
:10100000FFF7E6FB0446BA48007830B1012812D059
:1010100002287DD003280DD150E104F0080018B15A
:1010200002F046FA01F0E0FB04F0010010B10120EB
:10103000BDE8F08159E1AF49097884EA010000EA8E
:101040000407AC48047004F0080060B1AA480078B6
:1010500048B90220A64908700020A849087001205C
:10106000A549087041E1C4F3C000A349087004F029
:10107000010048B3A248007860B1A1480078082870
:101080001CDB9F4800780838032190FBF1F201FB3C
:10109000120098B99B480078401E42B29A4890F9D5
:1010A00000309A4801789A48007800F0ADFA28B9E3
:1010B00094480078401E40B29249087090480078E9
:1010C000401C8F49087002E000208D49087004F030
:1010D000020058B38F48007860B18E480078082825
:1010E0001EDB8C4800780838032190FBF1F201FBED
:1010F0001200A8B9844890F9003082480078401C5A
:1011000042B2824801788248007800F07DFA00E01F
:10111000AAE028B97B480078401C40B279490870A1
:101120007C480078401C7B49087002E00020794927
:10113000087007F0040070B374490978481CC1179F
:1011400000EB91718910A0EB8101CDB26E4890F94E
:1011500000306C4890F9002029466D48007800F076
:1011600053FA10B9694805702BE066480078401EB4
:1011700042B2654890F9003029466548007800F091
:1011800043FA48B9614805705E480078401E40B295
:101190005C49087015E015E05B4890F9003059484B
:1011A0000078401C42B229465948007800F02CFAD9
:1011B00038B95648057053480078401C40B2514930
:1011C000087000BF00F0E8FC05462846E91705EB6B
:1011D00091718E10012E00DA01264F480078401CD4
:1011E0004D49087008460078B04235DB0020087091
:1011F0004A480078F8B944480078401C43B2414856
:1012000090F90020414801784148007800F0FCF94D
:1012100088B101F027F900F095F902F0E9F9D8B9A1
:101220000320334908703E4801880320FFF742F845
:1012300001F002FD59E039480078401C3749087038
:1012400008460078042807DB002008702E48007844
:10125000401C40B22C49087032480078401C31498B
:10126000087001F0C1FA40E02448007820B901F08C
:10127000BBFA01202149087000F072FD00F0FEFE6B
:1012800004F0080040B12848007828B90120184926
:101290000870002019490870C4F3C0002249087082
:1012A00004F0010048B10320114908701C4801886E
:1012B0000320FEF7FFFF01F0BFFC16E004F008007A
:1012C00018B102F0F5F801F08FFA04F0010058B1FE
:1012D000134801880320FEF7EDFF00200449087041
:1012E00001F06AFF0120A3E600BF00BF00209FE6D7
:1012F0004800002064000020650000205B00002002
:10130000660000204C0000204D0000204A00002014
:101310004900002067000020590000205A000020EA
:101320004E000020580000206800002010B540F258
:101330002551214800F059F801283CD11E4800F001
:101340007EF8C4B21D48007858B92B2C2DD11C480A
:10135000007850BB01201949087000201949087015
:1013600023E01648007801280FD10D2C03D102206C
:101370001249087019E01448124909784454114878
:101380000078401C0F4908700FE00C4800780228D4
:101390000BD10A2C09D10020084908700A49094AD2
:1013A0001278885401200649087040F225510248FD
:1013B00000F00CF800BF10BD003801400100002013
:1013C00000000020020000207000002010B5002264
:1013D000002340F66A14A14200D100BF0A12012482
:1013E0009440A3B2DC43048010BD70B502460024D3
:1013F00000230025002040F66A16B14200D100BF4C
:10140000C1F3421501F01F03012606FA03F3012D73
:1014100002D19689334006E0022D02D1168A33406C
:1014200001E0968A33400C12012606FA04F416886D
:10143000344013B10CB1012000E0002070BD014622
:101440008888C0F30800704700BFFEE702E008C8C4
:10145000121F08C1002AFAD170477047002001E02E
:1014600001C1121F002AFBD1704700002DE9F04195
:1014700004460D46324800EBC40010F80580B8F170
:10148000000F02D10020BDE8F081002354E00BB929
:10149000012004E0012B01D0012000E000200646DD
:1014A0000BB9002008E0012B01D1012004E0032B3F
:1014B00001D1181F00E0012007464FF0010CE01990
:1014C00042B2A81941B207E00CF1010000F0FF0C94
:1014D000D01942B2881941B2002A0BDB082A09DA76
:1014E000002907DB082905DA154800EBC200405C3B
:1014F0004045E9D0E01B42B2A81B41B207E00CF125
:10150000010000F0FF0CD01B42B2881B41B2002A40
:101510000BDB082A09DA002907DB082905DA084865
:1015200000EBC200405C4045E9D0BCF1030F01DB99
:101530000120A8E7581C43B2042BA8DB0020A2E737
:101540008C080020F0B5002313213BE0012400208B
:101550000AE001EB8105274E06EB45052D5C0DB930
:10156000002403E0451C68B20A28F2DB00BF04B97E
:1015700026E05D1CEBB20A4614E000200EE0551E8A
:1015800005EB85051B4E06EB45052D5C02EB82063F
:10159000184F07EB46063554451C68B20A28EEDBA7
:1015A000551E6AB2002AE8DC002004E00025114E36
:1015B0003554451C68B20A28F8DB4D1C69B200BFDF
:1015C0004C1E61B20029C1DA9BB10B4C34F81340B8
:1015D0000A4D2D882C44094D2C80094C24881C442C
:1015E000074D2C802C4624880A2594FBF5F4054DE4
:1015F0002C70F0BDCC080020B64200084E00002040
:1016000052000020500000202DE9F04305460E4610
:1016100017469C4600212FE0194800EB051000EB0F
:10162000860010F80180002222E00120904000EAAC
:10163000080000B91AE0B81843B20CEB010044B23C
:10164000002B03DB0A2B01DA142C02DB0120BDE89E
:10165000F083002C09DB04EB8400DFF8289009EB11
:101660004000C05C08B10120F1E700BF501CC2B2CD
:10167000042ADADB481CC1B20429CDDB0020E6E7EE
:1016800046420008CC08002070B504460D460523EC
:101690001A462946204600F0D7FC2946204600F08D
:1016A000A1FA211DC8B2294600F09CFA281DC1B23A
:1016B000204600F097FA2A1DD1B2221DD0B200F0C8
:1016C00091FA70BD70B528245025AB1CA21C0F21C7
:1016D000012000F00BFC2B1D221D0E21002000F02C
:1016E00005FC70BD2DE9F04104460D46022000EBDB
:1016F0008400C6B2102000EB8500C7B204231A464E
:101700003946304600F0A0FCBDE8F08170B50446D3
:101710000D46AA1CD1B2A21CD0B21C231A4600F05E
:10172000E5FB002617E006EB8603AA1C1A44D1B29B
:10173000A21CD0B201231C2200F086FCAA1CD1B24C
:1017400006EB8603A21C1A44D0B21C23012200F02F
:101750007BFC701CC6B2062EE5DB05F10802D1B297
:1017600004F10802D0B204231A4600F06DFC05F122
:101770000D02D1B204F11202D0B204231A4600F0D5
:1017800063FC05F11202D1B204F10D02D0B20423C0
:101790001A4600F059FC05F10802D1B204F10D021D
:1017A000D0B204231A4600F0A1FB05F10902D1B220
:1017B00004F10E02D0B200F071FB05F10D02D1B2BE
:1017C00004F10802D0B204231A4600F08FFB05F1A1
:1017D0000E02D1B204F10902D0B200F05FFB05F1B4
:1017E0001202D1B204F11202D0B204231A4600F060
:1017F0007DFB05F11302D1B204F11302D0B200F067
:101800004DFB70BD30B505460C46A21CD1B2AA1CDA
:10181000D0B21C231A4600F069FB621CD1B26A1CCC
:10182000D0B21E231A4600F061FB04F10C00C1B2D5
:1018300006230422284600F007FC04F10E02D1B270
:1018400005F11C02D0B20623042200F0FDFBA21C0D
:10185000D1B205F10802D0B20A23022200F0F4FB53
:1018600004F10802D1B205F11202D0B2082302221B
:1018700000F0EAFBA21CD1B205F10C02D0B20623A3
:10188000022200F0E1FBA21CD1B205F11602D0B297
:101890000823022200F0D8FB04F10C02D1B2AA1DE9
:1018A000D0B202230A2200F0CFFB04F10E02D1B223
:1018B00005F10E02D0B202230A2200F0C5FB04F1AA
:1018C0001202D1B22A1DD0B202230A2200F0BCFBC0
:1018D00004F11402D1B205F11002D0B202230822A1
:1018E00000F0B2FB04F11602D1B22A1DD0B20223DD
:1018F0000E2200F0A9FB04F11802D1B205F1080292
:10190000D0B20223102200F09FFB04F11202D1B2E8
:1019100005F10A02D0B20823022200F095FB04F17F
:101920000E02D1B205F11402D0B20823022200F057
:101930008BFBA21DD1B26A1DD0B200F0AFFAA21D7E
:10194000D1B205F11102D0B200F0A8FA04F10C02F4
:10195000D1B205F11102D0B200F0A0FA04F10C02EC
:10196000D1B205F11902D0B200F098FA04F11202D6
:10197000D1B205F11902D0B200F090FA30BD30B505
:1019800004460D46AA1DD1B204F10E02D0B21423B2
:10199000042200F059FBE9B204F10D02D0B2082391
:1019A000062200F051FBAA1CD1B204F10C02D0B205
:1019B0000623082200F048FB05F10C02D1B2E0B288
:1019C0000423202200F040FB05F10A02D1B204F109
:1019D0000802D0B20223102200F036FB05F11602F5
:1019E000D1B2221DD0B20323182200F02DFBAA1D74
:1019F000D1B204F10D02D0B20423062200F024FB80
:101A0000EA1DD1B204F10E02D0B200F0EBF8EA1DEB
:101A1000D1B204F11102D0B200F0E4F805F11A02DB
:101A2000D1B204F10D02D0B200F038FA05F11A0279
:101A3000D1B204F11202D0B200F030FA05F11B026B
:101A4000D1B204F10E02D0B20223042200F0FCFA5B
:101A500030BD70B504460D4603231A46294620467C
:101A600000F0F2FA70BD70B504460D46AA1CD1B262
:101A7000A21CD0B21C231A4600F038FA002619E046
:101A800006EB4603AA1C02EB4302D1B2A21CD0B261
:101A900001231C2200F0D8FAAA1CD1B206EB46039F
:101AA000A21C02EB4302D0B21C23012200F0CCFAAC
:101AB000701CC6B2052EE3DB05F10802D1B204F1B9
:101AC0000A02D0B204231A4600F0BEFA05F10E0253
:101AD000D1B2221DD0B20423102200F0B5FA05F1D4
:101AE0001402D1B204F11002D0B204231A4600F05D
:101AF000ABFA05F11402D1B204F10A02D0B2042308
:101B00000A2200F0A1FA70BD2DE9F04104460D460D
:101B1000A01CC6B2A81CC7B22946304600F0BEF9C8
:101B2000281DC1B2304600F0B9F93946204600F010
:101B3000B5F9211DC8B2394600F0B0F9711EC8B21E
:101B4000394600F0ABF93946304600F0A7F9711C70
:101B5000C8B2394600F0A2F9781EC1B2304600F092
:101B60009DF9781CC1B2304600F098F9294620460C
:101B700000F094F9211DC8B2294600F08FF9281D04
:101B8000C1B2204600F08AF92A1DD1B2221DD0B27E
:101B900000F084F9BDE8F08106480078092801DBEF
:101BA00004207047034800781221A1EB4000C0B226
:101BB000F7E7000050000020002004E00021064A62
:101BC0001154411C88B205490978054A12785143DD
:101BD0008142F3DC704700009C0100200C000020D3
:101BE0000E00002010B50F4A1278904203DA0E4A18
:101BF0001278914200DB10BD0C4A1278424302EB8E
:101C0000E1020B4B9A5C01F007040123A3409A43C5
:101C1000064B1B78434303EBE103054CE25400BF42
:101C2000E9E700000C0000200D0000200E0000205D
:101C30009C0100202DE9F04306460D46202A01DBD9
:101C40007E2A01DDBDE8F083A2F12001CFB2EB10C6
:101C500005F10801CC10002053E006EB000C0CF05D
:101C6000FF01DFF8A8C09CF800C0614500DB46E03A
:101C7000DFF89CC09CF800C063451BDADFF890C019
:101C80009CF800C001FB0C3CDFF8888018F80CC001
:101C9000DFF8848008EB071818F800804CEA080C7D
:101CA000DFF86C8098F8008001FB0838DFF864905A
:101CB00009F808C0DFF858C09CF800C064451DDA78
:101CC000DFF84CC09CF800C001FB0C4CDFF84480EE
:101CD00018F80CC0DFF8408008EB071900F108087D
:101CE00019F808804CEA080CDFF8248098F8008086
:101CF00001FB0848DFF81C9009F808C000BF411C30
:101D0000C8B20828A9DB00BF9CE700000C00002037
:101D10000E0000209C010020083C000870B505461C
:101D20000E46144634B1012C09D0022C0CD0032CE1
:101D300014D10EE031462846FFF721FE0EE0314671
:101D40002846FFF75FFD09E031462846FFF7DEFC35
:101D500004E031462846FFF786FE00BF00BF70BD95
:101D60002DE9FC4F00F0F0F9814600F0E7F9019011
:101D7000FFF722FFB9F1800F1FD148242025A9EBDE
:101D8000040000EBD071C1F347060199481B00EB3A
:101D9000D0714910891ECFB2A4F1300000EBD07190
:101DA00006EB610101F0FF0AA5F1100000EBD07114
:101DB00007EB610101F0FF0B1DE038241A25A9EBA8
:101DC000040000EBD071C1F347060199481B00EBFA
:101DD000D071C1F34707A4F1300000EBD07106EBDE
:101DE000610101F0FF0AA5F1100000EBD07107EBD3
:101DF000610101F0FF0B2B4622463946304600F0C8
:101E000075F8A5F1020C0CF0FF03A4F1020C0CF024
:101E1000FF0207F1010C0CF0FF0106F1010C0CF0C0
:101E2000FF0000F063F817A000904FF000080CE0EE
:101E3000009911F808200AEBC801C8B25946FFF70B
:101E4000F9FE08F1010000F0FF08B8F1060FEFDB22
:101E5000B9F1800F0AD10DA20321002000F0E0F8B3
:101E60000CA20321502000F0DBF809E007A20621B4
:101E7000002000F0D5F807A20721002000F0D0F8DC
:101E8000BDE8FC8F50415553454400004B343A4760
:101E90004F0000004B313A454E44000010B50F4A48
:101EA0001278904203DA0E4A1278914200DB10BD9C
:101EB0000C4A1278424302EBE1020B4B9A5C01F0B0
:101EC00007040123A3401A43D3B2064A12784243BF
:101ED00002EBE102044CA35400BFE8E70C00002031
:101EE0000D0000200E0000209C0100202DE9F04193
:101EF00005460E461746984600240EE02919C8B23A
:101F00003146FFF7CBFF06EB0802521ED1B22A1969
:101F1000D0B2FFF7C3FF601CC4B2BC42EEDB0024AA
:101F20000DE03019C1B22846FFF7B8FF3219D1B21F
:101F3000EA19521ED0B2FFF7B1FF601CC4B244458B
:101F4000EFDBBDE8F08100002DE9F04F05460C46BF
:101F500016461F46DDF82480E01004F0070C00222E
:101F600053E005EB020909F0FF01DFF8A89099F8AA
:101F70000090494500DB46E016F8029009FA0CF99A
:101F80001FFA89F3DFF8909099F80090484517DA26
:101F9000DFF8849099F8009001FB0909DFF87CA034
:101FA0001AF8099003F0FF0A49EA0A09DFF868A065
:101FB0009AF800A001FB0A0ADFF860B00BF80A905B
:101FC00000F10109DFF850A09AF800A0D14519DA14
:101FD000DFF8449099F8009001FB090909F1010923
:101FE000DFF838A01AF8099049EA232ADFF8289088
:101FF00099F8009001FB090909F10109DFF81CB00B
:102000000BF809A000BF511CCAB2BA42A9DBBDE857
:10201000F08F00000C0000200E0000209C0100202A
:10202000F0B505460E4614463007070E08E0227844
:1020300039462846FFF7FEFD05F10800C5B2641CCD
:1020400020780028F3D1F0BD2DE9F04306460F4675
:102050009046994600250DE0002407E07A19D1B298
:102060003219D0B2FFF71AFF601CC4B24445F5DB49
:10207000681CC5B24D45EFDBBDE8F0832DE9F047A4
:102080002A480078B0B9002411E000212046FEF76C
:10209000F0FD002507E004EBC501254A505CFEF782
:1020A00009FE681CC5B2802DF5DB601CC4B2082C8B
:1020B000EBDB39E0002435E000212046FEF7D9FDB6
:1020C00000252BE00027C5F17F0000F0FF084FEA54
:1020D000E80908F007010120884000F0FF0A002607
:1020E00015E006EBC401C8B21249097888420CDA3F
:1020F0001149097800FB01910D4A515C01EA0A017E
:1021000019B10121B1403943CFB2701CC6B2082EBB
:10211000E7DB3846FEF7CEFD681CC5B2802DD1DB6B
:10212000601CC4B2082CC7DBBDE8F0870F0000209C
:102130009C0100200C0000200E00002001480078C7
:10214000704700000D000020014800787047000033
:102150000C00002000B503460C4803704BB98020EA
:102160000B49087040200B49087008200A49087084
:1021700008E04020064908708020064908701020B9
:1021800005490870FFF718FD00BD00000F00002092
:102190000C0000200D0000200E00002000201DE09B
:1021A00000EB40010F4A02EB41010979A1B90E4948
:1021B0000978C91C00EB40020A4B23F81210702169
:1021C00000EB400203EB42025180012100EB400290
:1021D00003EB4202117103E0411CC8B20328DFDBAC
:1021E00000BF70479C0500202300002070B50C4CF8
:1021F0000C4D72B6FEF718F80948FDF7ABFF002644
:1022000007E029882046FDF7EFFFA41CAD1C701CD9
:10221000C6B2042EF5D3FDF7DDFF62B670BD000037
:1022200000FC0008100000202DE9FF5F0020039053
:102230006D48006843F2390108446C490860002485
:102240000EE0002508E00F2004EB8401684A02EB51
:1022500081014855681CC5B2142DF4DB601CC4B262
:10226000092CEEDB0020634908806349614A12882B
:102270008854002161485F4A128881545D48008873
:10228000401C5C4908805A48007840F010005849CA
:10229000087090E057480088401E57490D5C55482B
:1022A0000088401E55490C5C0026002723E0544A54
:1022B000D25D2A4450B2534AD25D224451B2002822
:1022C00017DB142815DA002913DB092911DA01EBD1
:1022D0008102474B03EB8202125C02F0100242B90A
:1022E00002AA905501AA91557AB20DF80620721CE7
:1022F000D6B2781CC7B2042FD9DB002E51DD00F016
:102300001BF990FBF6F106FB110000F0FF0A02A892
:1023100010F90A8001A810F90A901DF80AB004EB20
:102320008400334901EB8000405D374911F80B1000
:10233000884304EB84012E4A02EB8101485509EBE6
:102340008900114601EB800010F808002F4911F8B0
:102350000B10884309EB890102EB810101F80800A9
:1023600009EB8900114601EB800010F8080040F0ED
:10237000100009EB890102EB810101F808001E48F9
:102380001C49098800F801801C481A49098800F88E
:10239000019018480088401C1649088000200390CE
:1023A00008E014480088401E124908800398401C29
:1023B000C0B2039000BF0F480088002804DD0398D6
:1023C000B0F57A7FFFF666AF0948007820F001008B
:1023D00007490870084690F8B30020F0040104484B
:1023E00080F8B310BDE8FF9F6C000020340000208F
:1023F000D80500203A0000208C0600208C07002021
:1024000035420008394200083D42000841420008B8
:1024100010B507480078072801DB00F0B1F8044840
:1024200001780078401C024A10700248405C10BDE0
:10243000630000205C000020F0B5044605AD95E87F
:10244000E010A018A8420BDDE819A04208DDC8186A
:10245000B04205DD06EB0C00884201DD0120F0BD35
:102460000020FCE7F0B500202EE0194A194B1B783C
:1024700002EB0312184B1B7802EB8302145C002161
:102480001EE001228A40224002B917E0134D2D7848
:1024900005446AB2124D2D780D446BB2002A0CDB54
:1024A000142A0ADA002B08DB0A2B06DA012502EBD4
:1024B00082060C4F07EB4606F55400BF4A1CD1B20A
:1024C0000429DEDB421CD0B20428CEDBF0BD0000C4
:1024D00046420008490000204A0000204D0000202C
:1024E0004C000020CC080020FEF75CF9FEF76AFBE8
:1024F000FDF7C8FEFDF79AFFFDF78FFF06E0FDF739
:102500009FFF03480068401C01490860F7E700008E
:102510006C000020064800680649484343F2390130
:1025200008440349086008460068C0F30E4070473D
:10253000280000206D4EC641064800680649484301
:1025400043F2390108440349086008460068C0F3B3
:102550000E407047340000206D4EC64106480068AA
:102560000649484343F239010844034908600846D4
:102570000068C0F30E407047540000206D4EC64105
:1025800070B5002403E00F490C55601C44B2072CC1
:10259000F9DB062410E0FFF7E1FF611C90FBF1F28C
:1025A00001FB120045B20748065D405D054908552C
:1025B00008464655601E44B2002CECDC002002495F
:1025C000087070BD5C000020630000202DE9F0471A
:1025D000FFF7F2FA002413E004EB4400002101EBC2
:1025E0004000C6B2002507E005F12701C8B2314618
:1025F000FFF754FC681CC5B2312DF5DB601CC4B27A
:10260000082CE9DD002511E005EB4500272101EB51
:102610004000C6B2002405E0E1B23046FFF73EFCC0
:10262000601CC4B2312CF7DB681CC5B2082DEBDD91
:1026300000242AE0002524E005EB4500272101EBDA
:102640004000401CC6B204EB4400002101EB4000F6
:10265000401CC7B24B4800EBC400405D012804D1C8
:1026600039463046FFF710F809E0464800EBC40051
:10267000405D022803D139463046FFF745FA681C11
:10268000C5B2082DD8DB601CC4B2082CD2DB3E4892
:102690000078002844D13D4800780C2840DA3C48B6
:1026A000007800EB4000272101EB4000C6B239481A
:1026B000007800EB4000002101EB4000C7B2F01CA5
:1026C00000F0FF08F81C00F0FF0907231A463946FE
:1026D0003046FFF70BFC7A1CD1B2721CD0B2052336
:1026E0001A46FFF703FCA9F10100C1B24046FFF70B
:1026F000D5FBA8F10101C8B24946FFF7CFFB494617
:102700004046FFF7CBFB08F10101C8B24946FFF78D
:10271000C5FB09F10100C1B24046FFF7BFFB00BF96
:102720001A480078401CC0B218490870102801DB14
:10273000002008701448007802280FD1164800784D
:10274000012805D115A203210020FFF769FC14E040
:1027500016A203210020FFF763FC0EE01748007863
:10276000012805D116A203210020FFF759FC04E03F
:1027700018A203210020FFF753FCFFF77FFCBDE800
:10278000F08700008C08002040000020430000205B
:102790003D0000203E00002041000020422057491B
:1027A0004E5321204B343A4E45572000572057496D
:1027B0004E5321204B343A4E455720003F00002015
:1027C000424C41434B204B343A4D4F5620505554C8
:1027D000000000005748495445204B343A4D4F56AD
:1027E00020505554000000002DE9FE4FFFF7E4F99A
:1027F0004BA0D0E900128068CDE9001202904B484E
:102800000688072736B930223846791E4FB20DF8B0
:10281000002014E00FE00A2096FBF0F100FB1160AD
:102820003030C2B23846791E4FB20DF800200A206F
:1028300096FBF0F086B2002E01DD022FEBDA0020CD
:102840008DF808006A4600210846FFF7E9FBFEF70D
:1028500039FF002412E000250CE004EB8400344929
:1028600001EB4000405D18B121462846FEF73AFFD3
:10287000681CC5B20A2DF0DB601CC4B2142CEADB64
:1028800000263AE02B482C49097800EB01102B492F
:10289000097800EB8100805D0290002729E001208B
:1028A000B8400299084000B921E02548007830443A
:1028B0004FFA80F82348007838444FFA80F9B8F18D
:1028C000000F13DB022000EB890000F0FF0A10204C
:1028D00000EB88001C490978084400F0FF0B042332
:1028E0001A4659465046FFF7AFFB00BF00BF781CA1
:1028F000C7B2042FD3DB701CC6B2042EC2DB00F0BB
:10290000C9FC12A206210020FFF78AFB11A20721B1
:102910000020FFF785FBFFF7B1FBBDE8FE8F00004D
:10292000533A202020202020000000004E000020EC
:10293000CC08002046420008490000204A00002040
:102940004D0000204C0000205A0000204C20522056
:102950006F2050004B314B324B334B3400000000A2
:102960002DE9FF414D4A07CA01AB07C34C48058812
:10297000072635B930223046711E4EB201A90A54DD
:1029800014E00FE00A2095FBF0F100FB115030300D
:10299000C2B23046711E4EB201A90A540A2095FBFC
:1029A000F0F085B2002D01DD022EEBDAFFF704F91D
:1029B000002405E07F212046FFF770FA601CC4B2B6
:1029C000FFF7C2FBA042F5DC00241AE0354800EB1B
:1029D0008400C07898B1334800EB840087780820E1
:1029E000314B03EB47022F4B03EB840300905978E4
:1029F0002C4B13F824000223FFF7A6FA00BF601C3B
:102A0000C4B2032CE2DB002418E004EB44002749A5
:102A100001EB4000007978B1082004EB44020B463A
:102A200003EB42020090917804EB440213F8120089
:102A300008231F4AFFF788FA601CC4B2052CE4DBA8
:102A4000002418E004EB44001A4901EB400000792F
:102A500078B1062004EB44020B4603EB42020090DF
:102A6000917804EB440213F812000223124AFFF794
:102A70006BFA601CC4B2032CE4DB082009230F4A64
:102A8000762100900E480078FFF75EFA01AA002137
:102A90000846FFF7C5FABDE8FF8100002C42000898
:102AA00024000020CC0500201B420008AE050020B9
:102AB000114200089C050020194200080842000845
:102AC000230000203EB5FFF777F84AA20021084610
:102AD000FFF7A6FA4AA201210020FFF7A1FA4B480E
:102AE0000588002404E020200DF80400601CC4B216
:102AF000082CF8DB53208DF8000043208DF80100EE
:102B00003A208DF80200072435B930222046611E94
:102B1000CCB20DF8002014E00FE00A2095FBF0F194
:102B200000FB11503030C2B22046611ECCB20DF80D
:102B300000200A2095FBF0F085B2002D01DD032C6A
:102B4000EBDA6A4603210020FFF76AFA304805886D
:102B5000002404E020200DF80400601CC4B2082CFE
:102B6000F8DB48208DF8000049208DF801003A205C
:102B70008DF80200072435B930222046611ECCB200
:102B80000DF8002014E00FE00A2095FBF0F100FBA7
:102B900011503030C2B22046611ECCB20DF8002078
:102BA0000A2095FBF0F085B2002D01DD032CEBDA55
:102BB0006A4604210020FFF733FA144800881449BC
:102BC0000988884208DB11480088002804DD11A22A
:102BD00005210020FFF724FA11A206210020FFF7AB
:102BE0001FFA12A207210020FFF71AFAFFF746FA90
:102BF0003EBD00002020E6B8B8E6888F2020000007
:102C00002020E7BB93E69D9F2020000024000020A9
:102C10002600002020E696B0E7BAAAE5BD9521007F
:102C20005B4B345DE9878DE78EA900005B4B315D1E
:102C3000E98080E587BA00003EB5FEF7BDFF4BA2F4
:102C400000210846FFF7ECF94BA201210020FFF715
:102C5000E7F94C480588002404E020200DF8040022
:102C6000601CC4B2082CF8DB53208DF80000432010
:102C70008DF801003A208DF80200072435B9302282
:102C80002046611ECCB20DF8002014E00FE00A20AF
:102C900095FBF0F100FB11503030C2B22046611EAE
:102CA000CCB20DF800200A2095FBF0F085B2002D83
:102CB00001DD032CEBDA6A4603210020FFF7B0F9AF
:102CC0000320FDF7D1FA0546002404E020200DF88A
:102CD0000400601CC4B2082CF8DB48208DF800000A
:102CE00049208DF801003A208DF80200072435B9FB
:102CF00030222046611ECCB20DF8002014E00FE017
:102D00000A2095FBF0F100FB11503030C2B2204692
:102D1000611ECCB20DF800200A2095FBF0F085B2C0
:102D2000002D01DD032CEBDA6A4604210020FFF7B9
:102D300077F90320FDF798FA12490988884208DCE0
:102D400010480088002804DD0FA205210020FFF7AD
:102D500067F910A206210020FFF762F910A20721EF
:102D60000020FFF75DF9FFF789F93EBD2020E6B8A6
:102D7000B8E6888F202000002020E7BB93E69D9FC7
:102D8000202000004E00002020E696B0E7BAAAE519
:102D9000BD9521005B4B345DE9878DE78EA900006E
:102DA0005B4B315DE98080E587BA00002DE9F04397
:102DB00085B0074688463D4BD3E901021968DB68B8
:102DC00002AC0DC40191FEF7F7FE39A200210820E4
:102DD000FFF726F9082303221C210020FFF734F90E
:102DE0001B210120FFF75AF824210120FFF756F894
:102DF000082303221C217D20FFF726F91B217E20BA
:102E0000FFF74CF824217E20FFF748F82CA000683B
:102E10000090002424E008EB0400C11700EB91713E
:102E20008910A0EB8101CDB21DF804002A461021C3
:102E3000FEF774FFBD4211D11DF80410891EC8B2FF
:102E400024231A460E21FFF751F81DF80410491EDD
:102E5000C8B222231A460F21FFF748F8601CC4B2FB
:102E6000032CD8DB01A850F82750002601E0701C85
:102E7000C6B2A85D0028FAD18021A1EBC60000EB04
:102E8000D071C1F3470909E02A7830214846FEF79E
:102E9000D1FE09F1080000F0FF096D1C2878002818
:102EA000F2D1FFF7EBF805B0BDE8F083F841000878
:102EB0003D3D2047414D4520485542203D3D0000C5
:102EC00004305C002DE9F0474FF004094FF0050A8B
:102ED000FEF772FE00276BE04FF0000863E008EB9E
:102EE000480009EB4000C5B207EB47000AEB400081
:102EF000C6B207EB87007C4901EB800010F80800A0
:102F000000F0010050B1002406E02919C8B2314692
:102F1000FEF7C4FF601CC4B2062CF6DD07EB870089
:102F2000714901EB800010F8080000F0080050B172
:102F3000002406E03019C1B22846FEF7AFFF601C3E
:102F4000C4B2062CF6DD07EB8700674901EB800071
:102F500010F8080000F0040058B1002407E0B21D8A
:102F6000D1B22A19D0B2FEF799FF601CC4B2062C68
:102F7000F5DD07EB87005C4901EB800010F80800E5
:102F800000F0020058B1002407E03219D1B2AA1DA6
:102F9000D0B2FEF783FF601CC4B2062CF5DD08F149
:102FA000010000F0FF08B8F1140F98DB781CC7B2DD
:102FB000092F91DB09F17500C5B20AF13300C6B2E1
:102FC000B01EC1B22846FEF769FF721ED1B26A1E5A
:102FD000D0B2FEF763FF701EC1B22846FEF75EFF57
:102FE000721ED1B26A1CD0B2FEF758FFA91EC8B239
:102FF0003146FEF753FF691EC8B23146FEF74EFF59
:1030000031462846FEF74AFF691CC8B23146FEF732
:1030100045FFA91CC8B23146FEF740FF721CD1B271
:103020006A1ED0B2FEF73AFF701CC1B22846FEF706
:1030300035FF721CD1B26A1CD0B2FEF72FFFB01C54
:10304000C1B22846FEF72AFF2848007800EB40006E
:1030500009EB4000401CC6B22548007800EB400058
:103060000AEB4000401CC5B2711CC8B20123022209
:103070002946FEF7E9FF681CC1B23046FEF70EFF95
:103080006A1CD1B2F21CD0B2FEF708FFA81CC1B274
:10309000022304223046FEF7D7FFEA1CD1B2721C8D
:1030A000D0B2FEF7FBFEEA1CD1B2B21CD0B2FEF7E2
:1030B000F5FEAA1CD1B2721CD0B2FEF793FDAA1C79
:1030C000D1B2B21CD0B2FEF78DFD0AA204210020BD
:1030D000FEF7A6FF0BA205210020FEF7A1FFFEF7D9
:1030E000CDFFBDE8F0870000D805002030000020AB
:1030F0003100002046494E44205448452045584957
:10310000542100004B312D343A4D4F5645000000FC
:1031100010B5FEF751FD13A200210846FEF780FF0F
:1031200013A201210020FEF77BFF14A20221002040
:10313000FEF776FF14A203210020FEF771FF15A20F
:1031400004210020FEF76CFF15A206210020FEF7E7
:1031500067FF16A207210020FEF762FFFEF78EFF31
:1031600010BD000020205F5F5F5F20200000000096
:10317000202F202020205C20000000002F504C41F8
:103180004E45205C000000005C2057415220202F5B
:1031900000000000205C5F5F5F5F2F2000000000E8
:1031A0005B4B345D53544152540000005B4B315D26
:1031B00045584954200000007CB5FEF7FDFC23A2D1
:1031C00000210846FEF72CFF23A201210020FEF774
:1031D00027FF24A202210020FEF722FF24A20421BF
:1031E0000020FEF71DFF25A205210020FEF718FF95
:1031F00025A206210020FEF713FF0320FDF734F877
:10320000044622A103C9CDE9000104251CB93020E0
:103210000DF8050012E00FE00A2094FBF0F100FB2E
:1032200011403030C2B22846691ECDB20DF80020E0
:103230000A2094FBF0F084B2002CEDDC6A460621F3
:103240001820FEF7EDFEFEF719FF7CBD205F5F5FE3
:103250005F5F2020000000007C5445545249537C9D
:10326000000000007C5F5F5F5F5F5F7C000000002C
:103270005B4B345DE5BC80E5A78B00005B4B315DAB
:10328000E98080E587BA000048493A0020202020E4
:103290002000000070B512231A461B212D20FEF7D6
:1032A00025FE00241BE00F480F49097800EB0110B0
:1032B000065D00250FE00120A840304048B11D22E6
:1032C00002EB8402D1B22F2202EB8502D0B2FEF7CC
:1032D000C0FB681CC5B2042DEDDB601CC4B2042C1D
:1032E000E1DB70BD464200084B00002010B5FEF740
:1032F00063FC0EA201210020FEF792FE0EA2022125
:103300000020FEF78DFE0FA203210020FEF788FEAD
:103310000FA205210020FEF783FE11A20621002046
:10332000FEF77EFEFEF7AAFE10BD000020594F55A5
:103330002057494E21000000204553434150454449
:103340002000000020544845204D415A450000000F
:103350005B4B345DE696B0E8BFB7E5AEAB0000006E
:103360005B4B315DE98080E587BA202000000000DA
:1033700070B500202349088023490870234908704C
:103380002348006843F23901084422490860FEF7E7
:10339000DBFEA0F1090505EBD570C0F347001E491F
:1033A000087000201D4908701D4908701D490870EB
:1033B00008201D490870002408E0002004EB4401A7
:1033C0001A4A02EB41010871601CC4B2032CF4DB01
:1033D000002408E0002004EB4401154A02EB4101FF
:1033E0000871601CC4B2052CF4DB002406E0002048
:1033F000104901EB8401C870601CC4B2032CF6DBD9
:1034000070BD0000240000202100002022000020C8
:103410006C00002028000020230000202C00002049
:103420002D0000202E0000202F0000209C050020F1
:10343000AE050020CC05002000200CE0002106E0B5
:103440000022114B03EBC0035A544A1CD1B2082985
:10345000F6DB421CD0B20828F0DB04220B4B1A70BA
:103460000B4B1A7001220B4B1A7000220A4B1A7078
:103470000A4B1A700A4B1A700A4B1A700A4B1A70D0
:103480000A4B1A70704700008C0800203D00002095
:103490003E0000203F0000204000002041000020AE
:1034A000420000204300002044000020450000208E
:1034B00070B500240EE0002508E0002004EB840134
:1034C000164A02EB41014855681CC5B20A2DF4DBCF
:1034D000601CC4B2142CEEDB002011490880114995
:1034E0000870114908801149087011490870114984
:1034F0000870114908701148006843F23901084406
:103500000F490860FFF73CF8FEF782FF0D4908708D
:1035100000F06EF801200C49087070BDCC08002046
:103520004E000020500000205200002058000020D3
:10353000590000205A0000205B0000206C00002091
:10354000540000204B0000204800002070B50024EB
:1035500026E004EB4400144901EB40000079E8B98F
:10356000FEF7D8FF0546FEF7EFFD0C3895FBF0F1AE
:1035700000FB1150801C00B204EB44010A4A22F8FF
:103580001100102004EB440102EB410148800120AE
:1035900004EB440102EB4101087103E0601CC4B27A
:1035A000052CD6DB00BF70BDAE05002010B502466D
:1035B000002017E00D4B03EB8003DB7883B90B4B46
:1035C00003F8202003EB800359700023074C04EB21
:1035D0008004A3700123054C04EB8004E37003E036
:1035E000431CD8B20328E5DB00BF10BDCC0500208A
:1035F00010B5114800781149087000201049087072
:10360000032010490870FF200F490870FEF700FFE3
:10361000094908700C4890F900300A4890F90020D8
:103620000748017805480078FDF7EEFF08B1002053
:1036300010BD0120FCE700004B00002049000020E5
:103640004A0000204C0000204D0000202DE9FF41E1
:10365000FDF7BEF80646B8480078002805DDB648F4
:103660000078401EB44908700FE006F0080040B131
:10367000B248007828B90220B14908700020B14949
:103680000870C6F3C000AD49087006F0010040B1F3
:10369000AD480078022804DBAB480078801EAA49B8
:1036A000087006F0020058B1FEF74EFD0B38A6492F
:1036B0000978884204DDA4480078801CA24908707B
:1036C000A2480078002804DDA0480078401E9F49E9
:1036D000087006F0040038B19C48007820B9FEF765
:1036E0005DFD042099490870002425E004EB4400A6
:1036F000974901EB40000079E0B104EB440001EB95
:103700004000B0F9020013280DDB04EB440001EB8C
:1037100040004088C01E00B204EB44018C4A02EB1A
:103720004101488006E0002004EB4401884A02EB96
:1037300041010871601CC4B2032CD7DB85480088A6
:10374000B0F5967F01DB01200CE082480088C82894
:1037500001DB022006E07F480088642801DB0320AB
:1037600000E0042007467C48007890FBF7F107FB57
:10377000110090BB002434E004EB4400774901EBD6
:103780004000007950B304EB440001EB4000408856
:10379000401C00B204EB4401704A02EB4101488036
:1037A00004EB4400114601EB4000B0F902006E2822
:1037B00015DB03206249087066480088684909885B
:1037C000884208DD634800886549088061480188AF
:1037D0000020FCF76FFDBDE8FF8104E0FFE7601CFF
:1037E000C4B2052CC8DB5B480088B0F5967F01DBCE
:1037F0000E2012E057480088C82801DB12200CE098
:1038000054480088642801DB182006E051480088ED
:10381000322801DB1E2000E0282007464E480078B1
:1038200090FBF7F107FB110008B9FFF78FFE0024AA
:1038300059E004EB4400464901EB4000007900B92F
:103840004FE0002549E005EB4500444901EB40000D
:10385000007900B93FE0082205EB45003F4901EB44
:103860004000807805EB45013C4F17F81110CDE979
:1038700001020392009104EB4402354B03EB420238
:10388000917804EB440213F8120006230222FEF79B
:10389000D3FDF8B1002004EB44012D4A02EB4101B5
:1038A000087105EB45023B4603EB4202917805EBBC
:1038B000450213F81200FFF779FE002005EB4501E1
:1038C0003A4602EB41010871224800880A3021493A
:1038D000088004E000BF681CC5B2052DB3DB00BF43
:1038E00000BF601CC4B2032CA3DB00241AE01D48F7
:1038F00000EB8400C07898B11A4800EB840080780F
:10390000401C184901EB84018870164800EB8400C4
:103910008078082804DB0020124901EB8401C8707C
:10392000601CC4B2032CE2DB0B480078401C0A493F
:10393000087000BF4FE700002F0000202E0000207D
:10394000200000202C000020230000202200002066
:103950009C0500202400002021000020AE0500204E
:1039600026000020CC05002000000C12120C0000E4
:103970000000000000000000000000000000000047
:1039800000000000000000001060028C00FE929217
:1039900092929292FE00000004047E014448507FFF
:1039A00040407F50484440000000FC242424FC2573
:1039B0002624FC242424040040308F80844C552588
:1039C0002525554C8080800040404242424242FEC4
:1039D000424242424240400080804020100C03009E
:1039E000030C1020408080001060028C0000FE92CA
:1039F00092929292FE00000004047E01407E4242B8
:103A00007E427E42427E400020104C475454545423
:103A1000545454D4040400000000000000000000CE
:103A20000000000F3040F0000824236AAA2AAA6A86
:103A30002A2A2AEA020200001011151515FF151591
:103A40001511100F3040F80000F80122A0A2A222A8
:103A5000FE22AA3202FE000000FF0010130A4B20D3
:103A6000170C133880FF0000008060F80704E4A4FE
:103A7000A4BFA4A4E4040000010000FF40407F4A6A
:103A80004A4A4A4A7F4040004040424458C0407F32
:103A900040C0504846404000808040201807000049
:103AA000003F40404040780002E222223E00809EDB
:103AB0009292F292929E8000004382423E4047449E
:103AC00044447F444454E70000004040404040FFED
:103AD0004040404040000000404040404040407F67
:103AE00040404040404040001010FF100082BAEAC1
:103AF000BA83BAEABA82000008180F04484A2AFFBB
:103B00008A4A1A2F5A8A8800100C44241404050685
:103B10000404142444140C00004040414141417FFE
:103B2000414141414040000020104C4754545454FE
:103B3000545454D4040400000000000000000000AD
:103B40000000000F3040F000000000000000FF40C7
:103B500040404040400000004040404040407F40E6
:103B60004040404040404000020202020202FE0289
:103B70000242820202020200000000000000FF0078
:103B8000000000010600000000FE225A8600FE929E
:103B900092929292FE00000000FF04080700FF408E
:103BA00020030C1422414000000000000000C03F30
:103BB000C000000000000000804020100C03000046
:103BC00000030C10204080000000C05E5252525290
:103BD0005252525EC000000080808F404020100E84
:103BE000101020204F800000060909E6F80C04029E
:103BF00002020202041E0000000000071F302040E5
:103C00004040404020100000000000000000000084
:103C10000000000000000000000000F800000000AC
:103C2000000000333000000000100C06100C0600ED
:103C3000000000000000000040C07840C078400054
:103C4000043F04043F04040000000C12120C0000A6
:103C50000000000000000000F008F000E018000084
:103C600000211C031E211E0000F0088870000000C7
:103C70001E2123241927211010160E000000000019
:103C80000000000000000000000000E01804020036
:103C9000000000071820400000020418E0000000A7
:103CA0000040201807000000404080F080404000A5
:103CB0000202010F01020200000000F000000000FB
:103CC0000101011F010101000000000000000000CF
:103CD00080B0700000000000000000000000000044
:103CE00000010101010101010000000000000000CD
:103CF0000030300000000000000000008060180468
:103D0000006018060100000000E010080810E00044
:103D1000000F102020100F00001010F8000000000D
:103D20000020203F20200000007008080888700054
:103D300000302824222130000030088888483000D4
:103D40000018202020110E000000C02010F80000F4
:103D500000070424243F240000F80888880808008D
:103D60000019212020110E0000E0108888180000A2
:103D7000000F112020110E0000380808C838080074
:103D80000000003F000000000070880808887000F4
:103D9000001C222121221C0000E010080810E00075
:103DA0000000312222110F00000000C0C0000000FE
:103DB0000000003030000000000000800000000023
:103DC000000080600000000000008040201008001B
:103DD00000010204081020004040404040404000E4
:103DE00004040404040404000008102040800000BF
:103DF0000020100804020100007048080808F000C4
:103E00000000003036010000C030C828E810E00093
:103E10000718272423140B000000C038E00000001E
:103E2000203C23020227382008F888888870000088
:103E3000203F202020110E00C0300808080838005C
:103E4000071820202010080008F808080810E000D3
:103E5000203F202020100F0008F88888E808100074
:103E6000203F20202320180008F88888E808100048
:103E7000203F200003000000C03008080838000080
:103E800007182020221E020008F808000008F80881
:103E9000203F210101213F20000808F80808000008
:103EA0000020203F2020000000000808F80808003B
:103EB000C08080807F00000008F888C028180800B3
:103EC000203F20012638200008F8080000000000EC
:103ED000203F20202020300008F8F800F8F80800E3
:103EE000203F003F003F200008F830C00008F808DD
:103EF000203F200007183F00E01008080810E000ED
:103F00000F10202020100F0008F808080808F00003
:103F1000203F210101010000E01008080810E00026
:103F20000F18242438504F0008F8888888887000BB
:103F3000203F2000030C302000708808080838005B
:103F40000038202121221C00180808F80808180051
:103F50000000203F2000000008F808000008F808D2
:103F6000001F202020201F000878880000C8380883
:103F7000000007380E010000F80800F80008F800FB
:103F8000033C0700073C0300081868808068180895
:103F900020302C03032C30200838C800C838080013
:103FA0000000203F2000000010080808C838080062
:103FB0002038262120201800000000FE0202020006
:103FC0000000007F40404000000C30C000000000B6
:103FD000000000010638C00000020202FE000000DE
:103FE000004040407F000000000004020202040084
:103FF00000000000000000000000000000000000C1
:1040000080808080808080800002020400000000A8
:1040100000000000000000000000808080800000A0
:104020000019242222223F2008F80080800000008E
:10403000003F112020110E00000000808080000051
:10404000000E112020201100000000808088F80060
:10405000000E112020103F20000080808080000092
:10406000001F222222221300008080F088888818F6
:104070000020203F20200000000080808080800001
:10408000006B94949493600008F800808080000096
:10409000203F210000203F20008098980000000071
:1040A0000020203F202000000000008098980000A1
:1040B00000C08080807F000008F8000080808000C1
:1040C000203F24022D302000000808F800000000E6
:1040D0000020203F202000008080808080808000A1
:1040E000203F20003F20003F808000808080000033
:1040F000203F210000203F200000808080800000C1
:10410000001F202020201F008080008080000000F1
:1041100080FFA12020110E00000000808080800020
:10412000000E112020A0FF80808080008080800011
:1041300020203F212000010000008080808080003E
:104140000033242424241900008080E080800000B3
:104150000000001F20200000808000000080800000
:10416000001F202020103F20808080000080808061
:1041700000010E30080601008080008000808080F1
:104180000F300C030C300F00008080008080800016
:104190000020312E0E312000808080000080808041
:1041A00080818E70180601000080808080808000F1
:1041B0000021302C2221300000000000807C02020F
:1041C00000000000003F404000000000FF00000031
:1041D00000000000FF0000000002027C80000000E0
:1041E0000040403F000000000006010102020404FC
:1041F0000000000000000000C0420008C8420008A3
:10420000D8420008D042000810387CFEFFFE7C38FF
:1042100010183C7EDBFF5A2400383818003C187E0A
:104220003CFF7E7E3C3C181800000000533A2020E2
:104230002020200000000100FFFF00010001020417
:10424000080408010200000F000002020202000040
:104250000F0004040404060600000606000006061B
:10426000000006060000020700000203020000072B
:10427000020002060200030600000203010000061D
:10428000030004060200060300000103020000060A
:1042900003000206040004070000020206000007F3
:1042A00001000302020001070000020203000007F0
:1042B000040006020200000064002C01F401200347
:1042C000504C414E450000004D415A450000000051
:1042D0005445545249530000474F4D4F4B55000031
:1042E0000043000800000020700000004C1400088B
:1042F0007043000870000020280D00005C140008C6
:1043000000000000000000000000000000000000AD
:10431000000000000000000000000000000000009D
:10432000000000000000000000000000000000008D
:10433000000000000000000000000000000000007D
:10434000000000000000000000000000000000006D
:10435000000000000000000000000000000000005D
:10436000000000000000000000000000000000004D
:04000005080000ED02
:00000001FF
