:020000040800F2
:10000000980C002005010008110800088905000867
:100010000D0800084D010008390E0008000000001E
:10002000000000000000000000000000CD0B0008F0
:1000300051010008000000004D0A0008B90C00083A
:100040001F0100081F0100081F0100081F01000810
:100050001F0100081F0100081F0100081F01000800
:100060001F0100081F0100081F0100081F010008F0
:100070001F0100081F0100081F0100081F010008E0
:100080001F0100081F0100081F0100081F010008D0
:100090001F0100081F0100081F0100081F010008C0
:1000A0001F0100081F0100081F0100081F010008B0
:1000B0001F0100081F0100081F0100081F010008A0
:1000C0001F0100081F0100081F0100081F01000890
:1000D0001F0100081D0D00081F0100081F01000876
:1000E0001F0100081F0100081F010008DFF810D0E1
:1000F00000F01AF800480047091C0008AFF3008020
:10010000980C00200648804706480047FEE7FEE7B7
:10011000FEE7FEE7FEE7FEE7FEE7FEE7FEE7FEE7B7
:10012000BD0C0008ED000008064C074D06E0E06835
:1001300040F0010394E8070098471034AC42F6D32E
:10014000FFF7D8FF84330008A433000800BFFEE7A0
:1001500070472DE9F04102460025002600200023CB
:100160000024002791F803C00CF00F0591F803C09C
:100170000CF0100CBCF1000F03D091F802C04CEA57
:10018000050591F800C0BCF1000F31D014680020C3
:100190002BE04FF0010C0CFA00F3B1F800C00CEAB0
:1001A00003069E4220D183004FF00F0C0CFA03F798
:1001B000BC4305FA03FC4CEA040491F803C0BCF10B
:1001C000280F06D14FF0010C0CFA00FCC2F814C045
:1001D0000AE091F803C0BCF1480F05D14FF0010CC3
:1001E0000CFA00FCC2F810C0401C0828D1D31460DF
:1001F000B1F800C0BCF1FF0F34DD546800202EE0E0
:1002000000F1080C4FF0010808FA0CF3B1F800C037
:100210000CEA03069E4221D183004FF00F0C0CFA2A
:1002200003F7BC4305FA03FC4CEA040491F803C04D
:10023000BCF1280F05D100F1080C08FA0CF8C2F83F
:10024000148091F803C0BCF1480F07D100F1080CED
:100250004FF0010808FA0CF8C2F81080401C08287A
:10026000CED35460BDE8F0810246002093680B4075
:100270000BB1012000E0002070470AB1016100E0ED
:100280004161704710B5002001F068FB002001F0CB
:100290006DFF10BD10B5002001F060FB002001F0E3
:1002A00065FF10BD70B500F087F90546384909783B
:1002B00085EA010000EA05043548057035480078F4
:1002C000002841D104F0010008B1012070BD04F004
:1002D000020060B130480078002804DD2E48007824
:1002E000401E2D4908702C48007801F03FFF04F0B3
:1002F000040060B128480078022804DA2648007813
:10030000401C254908702448007801F02FFF04F0B4
:100310000800002839D001201E4908701E480078C6
:100320001E4908700846007820B1012805D002282F
:1003300009D105E000F08CFB05E000F063F902E074
:1003400000F02EF800BF20E000261448007820B10D
:10035000012806D002280CD107E000F097FB0646E2
:1003600007E000F06FF9064603E000F023F80646C8
:1003700000BF00BF46B100200649087001F0EEFA48
:100380000548007801F0F2FE00BF00209EE7000063
:100390000A000020080000200700002009000020BB
:1003A00010B5002001F0DAFA02F05CF901F064FC0B
:1003B000002010BD70B500F0FFF8054668490978C7
:1003C00085EA010000EA05046548057005F00100B2
:1003D000B8B105F00400A0B162480078A0B9624845
:1003E0000078401C60490870084600781E280BDB26
:1003F00001205C49087000205C4908705A49087067
:1004000002E00020584908705648007820B10128C1
:1004100077D0022873D190E004F0010040B1544835
:100420000078002804DD52480078401E50490870CA
:1004300004F0020040B14E480078072804DA4C4826
:100440000078401C4A49087004F0040040B1494853
:100450000078002804DD47480078401E45490870B0
:1004600005F0080080B344480078401C42490870F9
:10047000084600780A2840D140483D49097800EBF9
:10048000C1003C490978405C10BB3D4800783B49BD
:10049000374A127801EBC201364A1278885435483F
:1004A00001783348007800F0D9FC38B102202D499A
:1004B000087033480078334908701EE030480078EF
:1004C000012802D1022001E003E001202C4908703C
:1004D00013E02948007800280CDD274800780A2816
:1004E00008DA24480078072804DA22480078401CFB
:1004F0002049087000202049087001F0BDFB2BE066
:10050000FFE71A48007820B901F0B6FB012017492F
:10051000087000F0E7FF01F0B5F904F0080030B111
:10052000002010490870114908701349087004F040
:10053000010008B1012070BD0EE004F0080028B1F0
:1005400002F090F801F098FB0020F4E704F00100BD
:1005500008B10120EFE700BF00BF0020EBE700007B
:10056000320000202C00002030000020310000204C
:100570002A000020290000202E000020540800201E
:100580002B0000202D00002000BFFEE708B5012150
:10059000082000F00BFB48208DF803004FF470405A
:1005A000ADF8000003208DF8020069460148FFF70E
:1005B000D0FD08BD000C014010B500244FF480515F
:1005C0000F48FFF751FE08B944F001044FF4005101
:1005D0000B48FFF749FE08B944F002044FF480418C
:1005E0000748FFF741FE08B944F004044FF4004106
:1005F0000348FFF739FE08B944F00804204610BD4F
:10060000000C014010B5002001F0A8F901F0F2F94A
:100610000020074908700749087007490870074912
:1006200008700749087001F0FDFD002010BD0000B2
:100630001C0000201D0000201E00002024000020BF
:100640002500002070B5FFF7B7FF05466849097817
:1006500085EA010000EA05046548057005F001001F
:10066000D8B105F00400C0B162480078022817D064
:1006700061480078401C60490870084600781E28D0
:100680000EDB5C48007858B901205A4908700020F8
:100690005A4908705849087002E00020564908700D
:1006A0005448007820B1012877D0022873D18EE019
:1006B00004F00100A8B152480078002811DD50482C
:1006C000007800EB80004F4901EB80004E4909782B
:1006D000405C00F0010020B949480078401E4849BC
:1006E000087004F00200A8B145480078082811DA23
:1006F0004348007800EB8000424901EB800042490A
:100700000978405C00F0040020B93D480078401CA6
:100710003B49087004F00400A8B13B480078002869
:1007200011DD3748007800EB8000364901EB80008E
:1007300035490978405C00F0080020B9324800785B
:10074000401E3149087004F00800A8B12E48007816
:10075000132811DA2A48007800EB8000294901EBC0
:10076000800029490978405C00F0020020B9264841
:100770000078401C2449087001F054FD224800789C
:10078000132808D11E480078082804D102201949EE
:10079000087001F0C1FE27E0FFE71848007820B993
:1007A00001F040FD01201549087000F09BFE01F0AA
:1007B00069F804F0080020B100200E4908700F49C4
:1007C000087004F0010008B1012070BD0CE004F0D5
:1007D000080018B1FFF716FF0020F6E704F001004B
:1007E00008B10120F1E700BF00BF0020EDE70000E5
:1007F000280000201E0000202400002025000020EA
:100800001D000020A00500201C00002000BFFEE706
:10081000704770B500240EE00021204600F0E5F896
:10082000002504E0002000F001F9681CC5B2802D0D
:10083000F8DB601CC4B2082CEEDB70BD08B50121EA
:10084000082000F0B3F914208DF8030003208DF880
:1008500002004FF48070ADF8000069460A48FFF7C7
:1008600078FC4FF40070ADF8000069460648FFF7C9
:1008700070FC012251020448FFF7FFFC0122110223
:100880000148FFF7FAFC08BD000C014070B50546B1
:10089000002415E08020204100EA05024FF4807119
:1008A0000E48FFF7EAFC012251020C48FFF7E5FC75
:1008B00000224FF400710948FFF7DFFC601CC4B24E
:1008C000082CE7DB012251020448FFF7D6FC002286
:1008D0004FF400710148FFF7D0FC70BD000C0140DF
:1008E00010B5012211020A48FFF7C7FC012251028C
:1008F0000748FFF7C2FC00224FF480710448FFF75D
:10090000BCFC00224FF400710148FFF7B6FC10BD9B
:10091000000C014010B500224FF480710648FFF72B
:10092000ACFC012251020448FFF7A7FC012211028E
:100930000148FFF7A2FC10BD000C014070B5002477
:1009400006E0002500E06D1CB5F57A7FFBD3641C42
:10095000B4F57A7FF5D3FFF771FFAE2000F056F8BB
:10096000D52000F053F8802000F050F8A82000F0C7
:100970004DF83F2000F04AF8D32000F047F800205F
:1009800000F044F8402000F041F8A12000F03EF8CB
:10099000C82000F03BF8DA2000F038F8122000F010
:1009A00035F8812000F032F8CF2000F02FF8D92060
:1009B00000F02CF8F12000F029F8DB2000F026F8F8
:1009C000302000F023F8A42000F020F8A62000F04A
:1009D0001DF88D2000F01AF8142000F017F8AF2051
:1009E00000F014F8FFF715FF70BD70B505460C4612
:1009F00045F0B00000F00AF8102141EA141000F0B0
:100A000005F804F00F0000F001F870BD10B50446C1
:100A1000FFF766FF7820FFF739FF0020FFF736FF6A
:100A20002046FFF733FFFFF775FF10BD10B50446F2
:100A3000FFF756FF7820FFF729FF4020FFF726FF3A
:100A40002046FFF723FFFFF765FF10BD704700004A
:100A500010B5012000F082FF002007490870074907
:100A6000088007490880074908700749087001F0A5
:100A7000FFFC002010BD00000C0000201000002032
:100A800012000020180000201900002010B5FFF708
:100A900093FD04464048007830B1012812D0022866
:100AA00022D0032874D156E004F0080020B101F0F0
:100AB00075FD01203849087004F0010008B10120DB
:100AC00010BD65E001F05CFE33480078012804D1D8
:100AD00001F0E0F900F0D6FE05E02F480078032889
:100AE00001D101F089FA53E02C48007820B901F0D7
:100AF000D1F901202949087000F0F4FC00F0C2FE91
:100B000004F0080088B126480078401C2449087089
:100B1000084600780F280BDB01201F4908700020D1
:100B20001E4908701E49087002E000201C49087028
:100B300004F0010070B103201749087019480088BB
:100B400019490988884203DD16480088164908803B
:100B500001F052FA1CE004F0080020B101F01EFD83
:100B600001200D49087004F0010080B10D48008893
:100B70000D490988884203DD0A4800880A4908802F
:100B800000200549087001F073FC012098E700BFC0
:100B900000BF002094E700000C0000201800002097
:100BA00019000020100000201200002029B1064A80
:100BB00092690243044B9A6104E0034A92698243BA
:100BC000014B9A617047000000100240704710B559
:100BD00000F002F810BD00000CB50020019000905C
:100BE0003348006840F480303149086000BF304825
:100BF000006800F4003000900198401C01900098BB
:100C000018B90198B0F5A06FF1D12948006800F437
:100C1000003010B10120009001E000200090009809
:100C2000012843D12348006840F0100021490860A2
:100C30000846006820F0030008600846006840F09D
:100C4000020008601A484068194948600846406830
:100C500048600846406840F4806048600846406844
:100C600020F47C1048600846406840F4E810486072
:100C70000846006840F08070086000BF0C480068BB
:100C800000F000700028F9D00948406820F0030007
:100C9000074948600846406840F00200486000BFCD
:100CA0000348406800F00C000828F9D10CBD000092
:100CB00000100240002002407047000010B51348A9
:100CC000006840F00100114908600846406810497A
:100CD00008400E494860084600680E4908400B4924
:100CE00008600846006820F48020086008464068D4
:100CF00020F4FE0048604FF41F008860FFF767FF94
:100D00004FF000600449086010BD00000010024070
:100D10000000FFF8FFFFF6FE08ED00E010B540F21E
:100D20002551214800F059F801283CD11E4800F017
:100D30007EF8C4B21D48007858B92B2C2DD11C4820
:100D4000007850BB0120194908700020194908702B
:100D500023E01648007801280FD10D2C03D1022082
:100D60001249087019E0144812490978445411488E
:100D70000078401C0F4908700FE00C4800780228EA
:100D80000BD10A2C09D10020084908700A49094AE8
:100D90001278885401200649087040F22551024813
:100DA00000F00CF800BF10BD003801400100002029
:100DB00000000020020000203800002010B50022B2
:100DC000002340F66A14A14200D100BF0A12012498
:100DD0009440A3B2DC43048010BD70B502460024E9
:100DE00000230025002040F66A16B14200D100BF62
:100DF000C1F3421501F01F03012606FA03F3012D8A
:100E000002D19689334006E0022D02D1168A334082
:100E100001E0968A33400C12012606FA04F4168883
:100E2000344013B10CB1012000E0002070BD014638
:100E30008888C0F30800704700BFFEE702E008C8DA
:100E4000121F08C1002AFAD170477047002001E044
:100E500001C1121F002AFBD1704700002DE9F041AB
:100E600004460D46324800EBC40010F80580B8F186
:100E7000000F02D10020BDE8F081002354E00BB93F
:100E8000012004E0012B01D0012000E000200646F3
:100E90000BB9002008E0012B01D1012004E0032B55
:100EA00001D1181F00E0012007464FF0010CE019A6
:100EB00042B2A81941B207E00CF1010000F0FF0CAA
:100EC000D01942B2881941B2002A0BDB082A09DA8C
:100ED000002907DB082905DA154800EBC200405C51
:100EE0004045E9D0E01B42B2A81B41B207E00CF13B
:100EF000010000F0FF0CD01B42B2881B41B2002A57
:100F00000BDB082A09DA002907DB082905DA08487B
:100F100000EBC200405C4045E9D0BCF1030F01DBAF
:100F20000120A8E7581C43B2042BA8DB0020A2E74D
:100F30005408002070B504460D4605231A4629467C
:100F4000204600F085FC2946204600F013FA211DBA
:100F5000C8B2294600F00EFA281DC1B2204600F0A2
:100F600009FA2A1DD1B2221DD0B200F003FA70BDD9
:100F700070B504460D46AA1CD1B2A21CD0B21C23E7
:100F80001A4600F0B7FB002617E006EB8603AA1C02
:100F90001A44D1B2A21CD0B201231C2200F058FC8A
:100FA000AA1CD1B206EB8603A21C1A44D0B21C23A1
:100FB000012200F04DFC701CC6B2062EE5DB05F1E7
:100FC0000802D1B204F10802D0B204231A4600F09C
:100FD0003FFC05F10D02D1B204F11202D0B204239C
:100FE0001A4600F035FC05F11202D1B204F10D02EF
:100FF000D0B204231A4600F02BFC05F10802D1B24E
:1010000004F10D02D0B204231A4600F073FB05F17F
:101010000902D1B204F10E02D0B200F043FB05F197
:101020000D02D1B204F10802D0B204231A4600F036
:1010300061FB05F10E02D1B204F10902D0B200F059
:1010400031FB05F11202D1B204F11202D0B2042335
:101050001A4600F04FFB05F11302D1B204F113025E
:10106000D0B200F01FFB70BD30B505460C46A21C87
:10107000D1B2AA1CD0B21C231A4600F03BFB621C62
:10108000D1B26A1CD0B21E231A4600F033FB04F121
:101090000C00C1B206230422284600F0D9FB04F15B
:1010A0000E02D1B205F11C02D0B20623042200F0D8
:1010B000CFFBA21CD1B205F10802D0B20A23022252
:1010C00000F0C6FB04F10802D1B205F11202D0B261
:1010D0000823022200F0BCFBA21CD1B205F10C02D5
:1010E000D0B20623022200F0B3FBA21CD1B205F15C
:1010F0001602D0B20823022200F0AAFB04F10C026F
:10110000D1B2AA1DD0B202230A2200F0A1FB04F141
:101110000E02D1B205F10E02D0B202230A2200F073
:1011200097FB04F11202D1B22A1DD0B202230A2287
:1011300000F08EFB04F11402D1B205F11002D0B21E
:101140000223082200F084FB04F11602D1B22A1D0A
:10115000D0B202230E2200F07BFB04F11802D1B2C0
:1011600005F10802D0B20223102200F071FB04F155
:101170001202D1B205F10A02D0B20823022200F015
:1011800067FB04F10E02D1B205F11402D0B20823BC
:10119000022200F05DFBA21DD1B26A1DD0B200F0A8
:1011A00081FAA21DD1B205F11102D0B200F07AFA93
:1011B00004F10C02D1B205F11102D0B200F072FAC2
:1011C00004F10C02D1B205F11902D0B200F06AFAB2
:1011D00004F11202D1B205F11902D0B200F062FAA4
:1011E00030BD30B504460D46AA1DD1B204F10E0241
:1011F000D0B21423042200F02BFBE9B204F10D025B
:10120000D0B20823062200F023FBAA1CD1B204F1BD
:101210000C02D0B20623082200F01AFB05F10C02E2
:10122000D1B2E0B20423202200F012FB05F10A0241
:10123000D1B204F10802D0B20223102200F008FB60
:1012400005F11602D1B2221DD0B20323182200F0FC
:10125000FFFAAA1DD1B204F10D02D0B20423062276
:1012600000F0F6FAEA1DD1B204F10E02D0B200F09D
:1012700081F8EA1DD1B204F11102D0B200F07AF87F
:1012800005F11A02D1B204F10D02D0B200F00AFA4F
:1012900005F11A02D1B204F11202D0B200F002FA42
:1012A00005F11B02D1B204F10E02D0B202230422D6
:1012B00000F0CEFA30BD2DE9F04104460D46A01CE9
:1012C000C6B2A81CC7B22946304600F0EBF9281D6B
:1012D000C1B2304600F0E6F93946204600F0E2F9A6
:1012E000211DC8B2394600F0DDF9711EC8B2394679
:1012F00000F0D8F93946304600F0D4F9711CC8B274
:10130000394600F0CFF9781EC1B2304600F0CAF974
:10131000781CC1B2304600F0C5F92946204600F0DD
:10132000C1F9211DC8B2294600F0BCF9281DC1B27F
:10133000204600F0B7F92A1DD1B2221DD0B200F02C
:10134000B1F9BDE8F0810000002004E00021064A68
:101350001154411C88B205490978054A1278514355
:101360008142F3DC7047000064010020030000208C
:101370000500002010B50F4A1278904203DA0E4A99
:101380001278914200DB10BD0C4A1278424302EB06
:10139000E1020B4B9A5C01F007040123A3409A433E
:1013A000064B1B78434303EBE103054CE25400BFBB
:1013B000E9E70000030000200400002005000020F1
:1013C000640100202DE9F04306460D46202A01DB8A
:1013D0007E2A01DDBDE8F083A2F12001CFB2EB103F
:1013E00005F10801CC10002053E006EB000C0CF0D6
:1013F000FF01DFF8A8C09CF800C0614500DB46E0B3
:10140000DFF89CC09CF800C063451BDADFF890C091
:101410009CF800C001FB0C3CDFF8888018F80CC079
:10142000DFF8848008EB071818F800804CEA080CF5
:10143000DFF86C8098F8008001FB0838DFF86490D2
:1014400009F808C0DFF858C09CF800C064451DDAF0
:10145000DFF84CC09CF800C001FB0C4CDFF8448066
:1014600018F80CC0DFF8408008EB071900F10808F5
:1014700019F808804CEA080CDFF8248098F80080FE
:1014800001FB0848DFF81C9009F808C000BF411CA8
:10149000C8B20828A9DB00BF9CE7000003000020B9
:1014A00005000020640100202C2D000870B50546C1
:1014B0000E46144624B1012C07D0022C0FD109E0AE
:1014C00031462846FFF78DFE09E031462846FFF7F2
:1014D000CBFD04E031462846FFF74AFD00BF00BFC0
:1014E00070BD00002DE9FF4F00F032FA804600F099
:1014F00029FA03904FF0000A10E00AF0010B07E010
:1015000051465846FFF736FF0BF1020000F0FF0B83
:10151000C345F5DB0AF1010000F0FF0A039882459C
:10152000EBDBB8F1800F1FD148242027A8EB040083
:1015300000EBD071C1F347050399C81B00EBD071D4
:101540004910091FCEB2A4F1300000EBD07105EBB9
:101550006101C9B20291A7F1100000EBD07106EB56
:101560006101C9B201911DE038241A27A8EB0400DB
:1015700000EBD071C1F347050399081B00EBD07154
:10158000C1F34706A4F1300000EBD07105EB610117
:10159000C9B20291A7F1100000EBD07106EB610116
:1015A000C9B201913B4622463146284600F0A2F8D6
:1015B000A7F1020C0CF0FF03A4F1020C0CF0FF02E7
:1015C00006F1010C0CF0FF0105F1010C0CF0FF001D
:1015D00000F090F8B21CD1B2AA1CD0B200F062F8B0
:1015E000B21CD1B22A19D21ED0B200F05BF8F219A7
:1015F000D21ED1B2AA1CD0B200F054F8F219D21EF9
:10160000D1B22A19D21ED0B200F04CF815A0009029
:101610004FF000090DE0009911F80920029901EB43
:10162000C901C8B20199FFF7CDFE09F1010000F030
:10163000FF09B9F1060FEEDBB8F1800F05D10BA25F
:101640000321002000F0F0F809E00EA2062100209E
:1016500000F0EAF80FA20721002000F0E5F8BDE84D
:10166000FF8F000050415553454400004B344C4F10
:101670004E473A524553554D4520204B313A51552E
:10168000495400004B34E995BFE68C893AE7BBA783
:10169000E7BBAD004B313AE98080E587BA202020D6
:1016A0002000000010B50F4A1278904203DA0E4A6B
:1016B0001278914200DB10BD0C4A1278424302EBD3
:1016C000E1020B4B9A5C01F007040123A3401A438B
:1016D000D3B2064A1278424302EBE102044CA3540F
:1016E00000BFE8E703000020040000200500002000
:1016F000640100202DE9F04105460E461746984644
:1017000000240EE02919C8B23146FFF7CBFF06EBE3
:101710000802521ED1B22A19D0B2FFF7C3FF601CD3
:10172000C4B2BC42EEDB00240DE03019C1B2284641
:10173000FFF7B8FF3219D1B2EA19521ED0B2FFF743
:10174000B1FF601CC4B24445EFDBBDE8F08100008E
:101750002DE9F04F05460C4616461F46DDF824805D
:10176000E01004F0070C002253E005EB020909F039
:10177000FF01DFF8A89099F80090494500DB46E0AA
:1017800016F8029009FA0CF91FFA89F3DFF8909025
:1017900099F80090484517DADFF8849099F800909E
:1017A00001FB0909DFF87CA01AF8099003F0FF0A91
:1017B00049EA0A09DFF868A09AF800A001FB0A0AC2
:1017C000DFF860B00BF80A9000F10109DFF850A0D3
:1017D0009AF800A0D14519DADFF8449099F8009002
:1017E00001FB090909F10109DFF838A01AF809908D
:1017F00049EA232ADFF8289099F8009001FB0909AB
:1018000009F10109DFF81CB00BF809A000BF511C59
:10181000CAB2BA42A9DBBDE8F08F00000300002085
:101820000500002064010020F0B505460E46144670
:101830003007070E08E0227839462846FFF7C2FD38
:1018400005F10800C5B2641C20780028F3D1F0BD72
:101850002DE9F04306460F469046994600250DE0D7
:10186000002407E07A19D1B23219D0B2FFF71AFF7B
:10187000601CC4B24445F5DB681CC5B24D45EFDBC6
:10188000BDE8F0832DE9F0472A480078B0B900247C
:1018900011E000212046FFF7A8F8002507E004EB3F
:1018A000C501254A505CFFF7C1F8681CC5B2802D00
:1018B000F5DB601CC4B2082CEBDB39E0002435E01A
:1018C00000212046FFF791F800252BE00027C5F105
:1018D0007F0000F0FF084FEAE80908F00701012047
:1018E000884000F0FF0A002615E006EBC401C8B2EC
:1018F0001249097888420CDA1149097800FB0191F4
:101900000D4A515C01EA0A0119B10121B140394384
:10191000CFB2701CC6B2082EE7DB3846FFF786F858
:10192000681CC5B2802DD1DB601CC4B2082CC7DB9B
:10193000BDE8F087060000206401002003000020BD
:1019400005000020014800787047000004000020D6
:1019500001480078704700000300002000B50346EE
:101960000C4803704BB980200B49087040200B498C
:10197000087008200A49087008E0402006490870ED
:10198000802006490870102005490870FFF7DCFC2C
:1019900000BD00000600002003000020040000201D
:1019A0000500002000201DE000EB40010F4A02EB83
:1019B00041010979A1B90E490978C91C00EB40021F
:1019C0000A4B23F81210702100EB400203EB420295
:1019D0005180012100EB400203EB4202117103E050
:1019E000411CC8B20328DFDB00BF7047640500203C
:1019F0000F0000202DE9FF5F002003906D48006874
:101A000043F2390108446C49086000240EE00025C7
:101A100008E00F2004EB8401684A02EB810148557D
:101A2000681CC5B2142DF4DB601CC4B2092CEEDBBB
:101A30000020634908806349614A12888854002164
:101A400061485F4A128881545D480088401C5C49A7
:101A500008805A48007840F010005849087090E01B
:101A600057480088401E57490D5C55480088401E65
:101A700055490C5C0026002723E0544AD25D2A44D5
:101A800050B2534AD25D224451B2002817DB1428C9
:101A900015DA002913DB092911DA01EB8102474B22
:101AA00003EB8202125C02F0100242B902AA9055C6
:101AB00001AA91557AB20DF80620721CD6B2781C94
:101AC000C7B2042FD9DB002E51DD00F0C3F890FB24
:101AD000F6F106FB110000F0FF0A02A810F90A80D7
:101AE00001A810F90A901DF80AB004EB84003349EC
:101AF00001EB8000405D374911F80B10884304EB7F
:101B000084012E4A02EB8101485509EB89001146F8
:101B100001EB800010F808002F4911F80B108843E2
:101B200009EB890102EB810101F8080009EB89004A
:101B3000114601EB800010F8080040F0100009EB9E
:101B4000890102EB810101F808001E481C4909883F
:101B500000F801801C481A49098800F801901848CB
:101B60000088401C164908800020039008E01448B3
:101B70000088401E124908800398401CC0B20390A0
:101B800000BF0F480088002804DD0398B0F57A7F75
:101B9000FFF666AF0948007820F001000749087099
:101BA000084690F8B30020F00401044880F8B31010
:101BB000BDE8FF9F3400002020000020A005002089
:101BC0002600002054060020540700205933000846
:101BD0005D3300086133000865330008F0B5044642
:101BE00005AD95E8E010A018A8420BDDE819A04269
:101BF00008DDC818B04205DD06EB0C00884201DDA7
:101C00000120F0BD0020FCE7FEF7C0FCFEF796FEC9
:101C1000FEF740FBFEF736FB06E0FEF743FB03480A
:101C20000068401C01490860F7E70000340000200C
:101C3000064800680649484343F23901084403490D
:101C4000086008460068C0F30E407047140000208A
:101C50006D4EC641064800680649484343F23901C3
:101C600008440349086008460068C0F30E40704706
:101C7000200000206D4EC6412DE9F047FFF764FBC0
:101C8000002413E004EB4400002101EB4000C6B245
:101C9000002507E005F12701C8B23146FFF702FD34
:101CA000681CC5B2312DF5DB601CC4B2082CE9DD1F
:101CB000002511E005EB4500272101EB4000C6B2ED
:101CC000002405E0E1B23046FFF7ECFC601CC4B232
:101CD000312CF7DB681CC5B2082DEBDD00242AE0AF
:101CE000002524E005EB4500272101EB4000401CC6
:101CF000C6B204EB4400002101EB4000401CC7B217
:101D00004B4800EBC400405D012804D13946304601
:101D1000FFF710F909E0464800EBC400405D0228D7
:101D200003D139463046FFF7C6FA681CC5B2082D04
:101D3000D8DB601CC4B2082CD2DB3E4800780028F7
:101D400044D13D4800780C2840DA3C48007800EB4C
:101D50004000272101EB4000C6B23948007800EB73
:101D60004000002101EB4000C7B2F01C00F0FF086A
:101D7000F81C00F0FF0907231A4639463046FFF7E2
:101D8000B9FC7A1CD1B2721CD0B205231A46FFF7F7
:101D9000B1FCA9F10100C1B24046FFF783FCA8F1F4
:101DA0000101C8B24946FFF77DFC49464046FFF7AE
:101DB00079FC08F10101C8B24946FFF773FC09F14B
:101DC0000100C1B24046FFF76DFC00BF1A48007821
:101DD000401CC0B218490870102801DB00200870B0
:101DE0001448007802280FD116480078012805D140
:101DF00015A203210020FFF717FD14E016A203210E
:101E00000020FFF711FD0EE017480078012805D1EA
:101E100016A203210020FFF707FD04E018A203210A
:101E20000020FFF701FDFFF72DFDBDE8F087000062
:101E3000540800202C0000202F0000202900002042
:101E40002A0000202D000020422057494E53212017
:101E50004B343A4E45572000572057494E532120C6
:101E60004B343A4E455720002B000020424C414352
:101E70004B204B343A4D4F56205055540000000033
:101E80005748495445204B343A4D4F5620505554ED
:101E9000000000002DE9FF414D4A07CA01AB07C30E
:101EA0004C480588072635B930223046711E4EB29F
:101EB00001A90A5414E00FE00A2095FBF0F100FBA1
:101EC00011503030C2B23046711E4EB201A90A54D0
:101ED0000A2095FBF0F085B2002D01DD022EEBDA31
:101EE000FFF732FA002405E07F212046FFF7DAFBF6
:101EF000601CC4B2FFF72CFDA042F5DC00241AE000
:101F0000354800EB8400C07898B1334800EB84007A
:101F100087780820314B03EB47022F4B03EB8403F8
:101F2000009059782C4B13F824000223FFF710FC83
:101F300000BF601CC4B2032CE2DB002418E004EBF9
:101F40004400274901EB4000007978B1082004EBF8
:101F500044020B4603EB42020090917804EB4402EA
:101F600013F8120008231F4AFFF7F2FB601CC4B2EB
:101F7000052CE4DB002418E004EB44001A4901EBD3
:101F80004000007978B1062004EB44020B4603EBD5
:101F900042020090917804EB440213F812000223ED
:101FA000124AFFF7D5FB601CC4B2032CE4DB082007
:101FB00009230F4A762100900E480078FFF7C8FBEE
:101FC00001AA00210846FFF72FFCBDE8FF810000B1
:101FD0005033000810000020940500203F33000813
:101FE0007605002035330008640500203D330008E5
:101FF0002C3300080F0000203EB5FFF7A5F94AA2D8
:1020000000210846FFF710FC4AA201210020FFF73B
:102010000BFC4B480588002404E020200DF8040048
:10202000601CC4B2082CF8DB53208DF8000043205C
:102030008DF801003A208DF80200072435B93022CE
:102040002046611ECCB20DF8002014E00FE00A20FB
:1020500095FBF0F100FB11503030C2B22046611EFA
:10206000CCB20DF800200A2095FBF0F085B2002DCF
:1020700001DD032CEBDA6A4603210020FFF7D4FBD5
:1020800030480588002404E020200DF80400601C7E
:10209000C4B2082CF8DB48208DF8000049208DF8E8
:1020A00001003A208DF80200072435B9302220467D
:1020B000611ECCB20DF8002014E00FE00A2095FB61
:1020C000F0F100FB11503030C2B22046611ECCB29C
:1020D0000DF800200A2095FBF0F085B2002D01DDFF
:1020E000032CEBDA6A4604210020FFF79DFB14481D
:1020F000008814490988884208DB114800880028B4
:1021000004DD11A205210020FFF78EFB11A206219C
:102110000020FFF789FB12A207210020FFF784FBB4
:10212000FFF7B0FB3EBD00002020E6B8B8E6888F80
:10213000202000002020E7BB93E69D9F2020000088
:10214000100000201200002020E696B0E7BAAAE5B1
:10215000BD9521005B4B345DE9878DE78EA90000BA
:102160005B4B315DE98080E587BA00002DE9FF41D6
:102170000646FFF7E9F824A200210820FFF754FBE8
:1021800000241BE02449085D22461021FFF78EF948
:10219000B44211D12049095D891EC8B224231A46D0
:1021A0000E21FFF7A7FA1C49095D491EC8B2222378
:1021B0001A460F21FFF79EFA601CC4B2032CE1DB24
:1021C000164A07CA01AB07C315A000680090002497
:1021D00013E001A850F824501DF8047008E02A7894
:1021E00030213846FFF7EEF807F10800C7B26D1C42
:1021F00028780028F3D1601CC4B2032CE9DBFFF778
:1022000041FBBDE8FF8100003D3D2047414D452099
:10221000485542203D3D00001C3300082033000893
:10222000063256002DE9F0474FF004094FF0050A39
:10223000FFF78AF800276BE04FF0000863E008EB37
:10224000480009EB4000C5B207EB47000AEB40002D
:10225000C6B207EB87007C4901EB800010F808004C
:1022600000F0010050B1002406E02919C8B231463F
:10227000FFF718FA601CC4B2062CF6DD07EB8700E6
:10228000714901EB800010F8080000F0080050B11F
:10229000002406E03019C1B22846FFF703FA601C9B
:1022A000C4B2062CF6DD07EB8700674901EB80001E
:1022B00010F8080000F0040058B1002407E0B21D37
:1022C000D1B22A19D0B2FFF7EDF9601CC4B2062CC6
:1022D000F5DD07EB87005C4901EB800010F8080092
:1022E00000F0020058B1002407E03219D1B2AA1D53
:1022F000D0B2FFF7D7F9601CC4B2062CF5DD08F1A7
:10230000010000F0FF08B8F1140F98DB781CC7B289
:10231000092F91DB09F17500C5B20AF13300C6B28D
:10232000B01EC1B22846FFF7BDF9721ED1B26A1EB7
:10233000D0B2FFF7B7F9701EC1B22846FFF7B2F965
:10234000721ED1B26A1CD0B2FFF7ACF9A91EC8B296
:102350003146FFF7A7F9691EC8B23146FFF7A2F967
:1023600031462846FFF79EF9691CC8B23146FFF78F
:1023700099F9A91CC8B23146FFF794F9721CD1B281
:102380006A1ED0B2FFF78EF9701CC1B22846FFF763
:1023900089F9721CD1B26A1CD0B2FFF783F9B01C64
:1023A000C1B22846FFF77EF92848007800EB4000CC
:1023B00009EB4000401CC6B22548007800EB400005
:1023C0000AEB4000401CC5B2711CC8B201230222B6
:1023D0002946FFF73DFA681CC1B23046FFF762F9A3
:1023E0006A1CD1B2F21CD0B2FFF75CF9A81CC1B2D2
:1023F000022304223046FFF72BFAEA1CD1B2721CEA
:10240000D0B2FFF74FF9EA1CD1B2B21CD0B2FFF73D
:1024100049F9AA1CD1B2721CD0B2FEF7ABFFAA1CBC
:10242000D1B2B21CD0B2FEF7A5FF0AA2042100204F
:10243000FFF7FAF90BA205210020FFF7F5F9FFF7E6
:1024400021FABDE8F0870000A00500201C00002054
:102450001D00002046494E44205448452045584917
:10246000542100004B312D343A4D4F5645000000A9
:1024700010B5FEF769FF13A200210846FFF7D4F953
:1024800013A201210020FFF7CFF914A2022100209E
:10249000FFF7CAF914A203210020FFF7C5F915A21E
:1024A00004210020FFF7C0F915A206210020FFF744
:1024B000BBF916A207210020FFF7B6F9FFF7E2F9F2
:1024C00010BD000020205F5F5F5F20200000000043
:1024D000202F202020205C20000000002F504C41A5
:1024E0004E45205C000000005C2057415220202F08
:1024F00000000000205C5F5F5F5F2F200000000095
:102500005B4B345D53544152540000005B4B315DD2
:10251000455849542000000010B5FEF715FF0EA2E3
:1025200001210020FFF780F90EA202210020FFF711
:102530007BF90FA203210020FFF776F90FA20521F6
:102540000020FFF771F911A206210020FFF76CF9B6
:10255000FFF798F910BD000020594F552057494EFC
:102560002100000020455343415045442000000015
:1025700020544845204D415A450000005B4B345DD6
:10258000E696B0E8BFB7E5AEAB0000005B4B315D4F
:10259000E98080E587BA20200000000070B50020A7
:1025A000234908802349087023490870234800689C
:1025B00043F23901084422490860FFF7C9F9A0F144
:1025C000090505EBD570C0F347001E4908700020CF
:1025D0001D4908701D4908701D49087008201D49D3
:1025E0000870002408E0002004EB44011A4A02EBC2
:1025F00041010871601CC4B2032CF4DB002408E024
:10260000002004EB4401154A02EB41010871601CF3
:10261000C4B2052CF4DB002406E00020104901EBD5
:102620008401C870601CC4B2032CF6DB70BD0000CE
:10263000100000200D0000200E00002034000020BB
:10264000140000200F0000201800002019000020B6
:102650001A0000201B0000206405002076050020E1
:102660009405002000200CE0002106E00022114B20
:1026700003EBC0035A544A1CD1B20829F6DB421CB2
:10268000D0B20828F0DB04220B4B1A700B4B1A70E7
:1026900001220B4B1A7000220A4B1A700A4B1A7057
:1026A0000A4B1A700A4B1A700A4B1A700A4B1A70AE
:1026B0007047000054080020290000202A00002054
:1026C0002B0000202C0000202D0000202E000020D8
:1026D0002F000020300000203100002070B50024C1
:1026E00026E004EB4400144901EB40000079E8B90E
:1026F000FFF79EFA0546FFF72BF90C3895FBF0F132
:1027000000FB1150801C00B204EB44010A4A22F87D
:102710001100102004EB440102EB4101488001202C
:1027200004EB440102EB4101087103E0601CC4B2F8
:10273000052CD6DB00BF70BD7605002010B5024623
:10274000002017E00D4B03EB8003DB7883B90B4BC4
:1027500003F8202003EB800359700023074C04EB9F
:102760008004A3700123054C04EB8004E37003E0B4
:10277000431CD8B20328E5DB00BF10BD9405002040
:102780002DE9FF41FDF718FF0646B4480078002800
:1027900005DDB2480078401EB04908700FE006F031
:1027A000080040B1AE48007828B90220AD49087051
:1027B0000020AD490870C6F3C000A949087006F0B2
:1027C000010040B1A9480078022804DBA74800783E
:1027D000801EA649087006F0020058B1FFF7B8F84D
:1027E0000B38A2490978884204DDA0480078801C93
:1027F0009E4908709E480078002804DD9C480078B7
:10280000401E9B49087006F0040038B198480078D3
:1028100020B9FFF7C7F8042095490870002425E087
:1028200004EB4400934901EB40000079E0B104EB74
:10283000440001EB4000B0F9020013280DDB04EB6B
:10284000440001EB40004088C01E00B204EB44018C
:10285000884A02EB4101488006E0002004EB440175
:10286000844A02EB41010871601CC4B2032CD7DB1F
:1028700081490988B1F5967F01DB01210CE07E4991
:102880000988C82901DB022106E07B4909886429FF
:1028900001DB032100E0042108467849097891FB17
:1028A000F0F200FB121189BB00242DE004EB44017F
:1028B000734A02EB4101097921B304EB440102EBB5
:1028C00041014988491C09B204EB44026C4B03EBFB
:1028D0004202518004EB44011A4602EB4101B1F976
:1028E00002106E290EDB03215E4A117062490988CD
:1028F000644A1288914203DD5F490988614A118068
:10290000BDE8FF81611CCCB2052CCFDB5A480088A2
:10291000B0F5967F01DB0E2012E057480088C828EA
:1029200001DB12200CE054480088642801DB1820E9
:1029300006E051480088322801DB1E2000E02820F4
:1029400007464E48007890FBF7F107FB110008B9E5
:10295000FFF7C4FE002459E004EB4400454901EBB5
:102960004000007900B94FE0002549E005EB450043
:10297000434901EB4000007900B93FE0082205EB34
:1029800045003F4901EB4000807805EB45013C4F95
:1029900017F81110CDE901020392009104EB4402F3
:1029A000344B03EB4202917804EB440213F812001B
:1029B00006230222FFF712F9F8B1002004EB4401CC
:1029C0002C4A02EB4101087105EB45023B4603EB43
:1029D0004202917805EB450213F81200FFF7AEFEB4
:1029E000002005EB45013A4602EB410108712248FF
:1029F00000880A302049088004E000BF681CC5B286
:102A0000052DB3DB00BF00BF601CC4B2032CA3DBE9
:102A100000241AE01C4800EB8400C07898B11A48E2
:102A200000EB84008078401C174901EB840188701A
:102A3000154800EB84008078082804DB0020124948
:102A400001EB8401C870601CC4B2032CE2DB0B48AC
:102A50000078401C0949087000BF51E71B000020A6
:102A60001A0000200C000020180000200F00002099
:102A70000E00002064050020100000200D00002042
:102A800076050020120000209405002000000C12A2
:102A9000120C000000000000000000000000000018
:102AA0000000000000000000000000001060028C28
:102AB00000FE929292929292FE00000004047E0127
:102AC0004448507F40407F50484440000000FC2470
:102AD0002424FC252624FC242424040040308F8058
:102AE000844C55252525554C80808000404042422D
:102AF000424242FE424242424240400080804020E8
:102B0000100C0300030C1020408080001060028C29
:102B10000000FE9292929292FE00000004047E0158
:102B2000407E42427E427E42427E400020104C4720
:102B300054545454545454D404040000000000006D
:102B4000000000000000000F3040F0000824236A5D
:102B5000AA2AAA6A2A2A2AEA0202000010111515D6
:102B600015FF15151511100F3040F80000F801225F
:102B7000A0A2A222FE22AA3202FE000000FF001044
:102B8000130A4B20170C133880FF0000008060F8F8
:102B90000704E4A4A4BFA4A4E4040000010000FF0F
:102BA00040407F4A4A4A4A4A7F40400040404244AF
:102BB00058C0407F40C05048464040008080402080
:102BC00018070000003F40404040780002E2222207
:102BD0003E00809E9292F292929E8000004382423A
:102BE0003E40474444447F444454E7000000404092
:102BF000404040FF404040404000000040404040D6
:102C00004040407F40404040404040001010FF1096
:102C10000082BAEABA83BAEABA82000008180F043E
:102C2000484A2AFF8A4A1A2F5A8A8800100C4424DC
:102C3000140405060404142444140C00004040410C
:102C40004141417F414141414040000020104C47FB
:102C500054545454545454D404040000000000004C
:102C6000000000000000000F3040F00000000000F5
:102C70000000FF40404040404000000040404040D5
:102C800040407F404040404040404000020202023D
:102C90000202FE0202428202020202000000000062
:102CA0000000FF00000000010600000000FE225AA4
:102CB0008600FE9292929292FE00000000FF0408AD
:102CC0000700FF4020030C142241400000000000D8
:102CD0000000C03FC0000000000000008040201045
:102CE0000C03000000030C10204080000000C05EB8
:102CF000525252525252525EC000000080808F40A9
:102D00004020100E101020204F800000060909E618
:102D1000F80C040202020202041E00000000000778
:102D20001F302040404040402010000000000000C4
:102D3000000000000000000000000000000000F89B
:102D400000000000000000333000000000100C06FE
:102D5000100C0600000000000000000040C0784099
:102D6000C0784000043F04043F04040000000C123B
:102D7000120C00000000000000000000F008F0004D
:102D8000E018000000211C031E211E0000F008882E
:102D9000700000001E2123241927211010160E0098
:102DA000000000000000000000000000000000E043
:102DB0001804020000000007182040000002041858
:102DC000E00000000040201807000000404080F0B4
:102DD000804040000202010F01020200000000F0EA
:102DE000000000000101011F0101010000000000BE
:102DF0000000000080B07000000000000000000033
:102E000000000000000101010101010100000000BB
:102E10000000000000303000000000000000000052
:102E200080601804006018060100000000E010082F
:102E30000810E000000F102020100F00001010F804
:102E4000000000000020203F202000000070080843
:102E500008887000003028242221300000300888C3
:102E6000884830000018202020110E000000C020EB
:102E700010F8000000070424243F240000F808880C
:102E8000880808000019212020110E0000E0108899
:102E900088180000000F112020110E0000380808CB
:102EA000C83808000000003F0000000000708808DB
:102EB00008887000001C222121221C0000E010085C
:102EC0000810E0000000312222110F00000000C0B5
:102ED000C000000000000030300000000000008052
:102EE0000000000000008060000000000000804042
:102EF000201008000001020408102000404040405B
:102F000040404000040404040404040000081020AD
:102F100040800000002010080402010000704808F2
:102F20000808F0000000003036010000C030C8285A
:102F3000E810E0000718272423140B000000C03815
:102F4000E0000000203C23020227382008F888888F
:102F500088700000203F202020110E00C03008089B
:102F600008083800071820202010080008F8080872
:102F70000810E000203F202020100F0008F888886B
:102F8000E8081000203F20202320180008F8888837
:102F9000E8081000203F200003000000C0300808AF
:102FA0000838000007182020221E020008F8080038
:102FB0000008F808203F210101213F20000808F8FF
:102FC000080800000020203F202000000000080822
:102FD000F8080800C08080807F00000008F888C0E2
:102FE00028180800203F20012638200008F8080093
:102FF00000000000203F20202020300008F8F800CA
:10300000F8F80800203F003F003F200008F830C0DB
:103010000008F808203F200007183F00E0100808CB
:103020000810E0000F10202020100F0008F80808FA
:103030000808F000203F210101010000E01008080D
:103040000810E0000F18242438504F0008F8888832
:1030500088887000203F2000030C30200070880812
:10306000080838000038202121221C00180808F820
:10307000080818000000203F2000000008F80800A1
:103080000008F808001F202020201F000878880072
:1030900000C83808000007380E010000F80800F8E2
:1030A0000008F800033C0700073C0300081868808C
:1030B0008068180820302C03032C30200838C80002
:1030C000C83808000000203F200000001008080851
:1030D000C83808002038262120201800000000FEF3
:1030E000020202000000007F40404000000C30C09F
:1030F00000000000000000010638C00000020202CB
:10310000FE000000004040407F000000000004027C
:1031100002020400000000000000000000000000A7
:103120000000000080808080808080800002020497
:10313000000000000000000000000000000080808F
:10314000808000000019242222223F2008F80080FD
:1031500080000000003F112020110E0000000080C0
:1031600080800000000E112020201100000000804F
:103170008088F800000E112020103F200000808081
:1031800080800000001F222222221300008080F095
:10319000888888180020203F2020000000008080C0
:1031A00080808000006B94949493600008F8008005
:1031B00080800000203F210000203F200080989860
:1031C000000000000020203F2020000000000080C0
:1031D0009898000000C08080807F000008F8000000
:1031E00080808000203F24022D302000000808F855
:1031F000000000000020203F202000008080808010
:1032000080808000203F20003F20003F80800080A1
:1032100080800000203F210000203F2000008080AF
:1032200080800000001F202020201F008080008060
:103230008000000080FFA12020110E00000000800F
:1032400080808000000E112020A0FF808080800000
:103250008080800020203F2120000100000080802D
:10326000808080000033242424241900008080E022
:10327000808000000000001F2020000080800000EF
:1032800000808000001F202020103F2080808000D0
:103290000080808000010E300806010080800080E0
:1032A000008080800F300C030C300F000080800005
:1032B000808080000020312E0E3120008080800030
:1032C0000080808080818E701806010000808080E0
:1032D000808080000021302C22213000000000007E
:1032E000807C020200000000003F4040000000001F
:1032F000FF00000000000000FF0000000002027C50
:10330000800000000040403F000000000006010176
:1033100002020404000000000000000004305C0011
:103320006C330008743300087C33000810387CFECE
:10333000FFFE7C3810183C7EDBFF5A24003838181A
:10334000003C187E3CFF7E7E3C3C181800000000CC
:10335000533A20202020200000000100FFFF000140
:10336000000102040804080102000000504C414E14
:10337000450000004D415A4500000000474F4D4FA9
:103380004B550000A4330008000000203800000066
:103390003C0E0008DC33000838000020600C000000
:1033A0004C0E0008000000000000000000000000BB
:1033B000000000000000000000000000000000000D
:1033C00000000000000000000000000000000000FD
:0C33D000000000000000000000000000F1
:04000005080000ED02
:00000001FF
